:02000002D0002C
:1040000000400D00C4700D00000006000C0005010A
:08401000040115050000000089
:1040180078660D0009480A49884208B505D0094A5A
:10402800824202D0121A02F031FA0748074A0021E8
:10403800121A02F036FA014808BD00BFF8E2032060
:1040480030700D0064E3032064E30320F0E70320ED
:1040580070B501F07FF9074C074BE41AA408002556
:104068001E46A54204D056F8253098470135F8E792
:1040780070BD00BF2C700D00E46F0D0000F0ECBBAC
:1040880008B500F039FDBDE8084001F031B900F08D
:10409800B5BF00F0BBBF00F0B9BF0078B0FA80F040
:1040A80040097047012303707047000008B500F00D
:1040B800F1FD034B1860BDE8084000F08FBF00BF5A
:1040C80034E7032038B584690A4B036005467CB1A0
:1040D8006368013B63605BB9236820469B68984727
:1040E800A368013BA3601BB923682046DB68984797
:1040F800284638BDB86D0D0010B50446FFF7E2FF3D
:10410800204610BD10B50446FFF7DCFF20461C21F1
:1041180002F05BF8204610BD03682BB14268934259
:1041280002D2184602F09CB90020704738B50568DD
:10413800044645B143689D4205D2284602F0ECF991
:10414800013005442560204638BD70B543680446F3
:1041580080689E188642154606D82068184402F0E2
:1041680095F963681D44656070BD000070B504462C
:104178004068A6682568054A0B46311A284400F0AD
:104188004DFF636801301844606070BDDF660D0044
:1041980070B504464068A6682568054A0B46311A7A
:1041A800284400F03BFF636801301844606070BD2C
:1041B800E2660D0008B500234377006801F06DFD45
:1041C800BDE8084000F0D6BC2DE9F0418E188EB04D
:1041D800B14280460D4617460591069680F0EE805E
:1041E8000B88ADF8123005A8FFF7A0FF03689E42C0
:1041F80040F2E48005A8FFF78FFFBDF8123047F2C0
:1042080076229342C4B200F0A0800DD847F2612212
:10421800934265D047F26422934239D046F67052F1
:10422800934240F0BD802FE047F26472934242D03F
:1042380047F27672934200F0998047F26172934296
:1042480040F0AE806EE005A8FFF766FFC5B205A88E
:10425800FFF76CFF059C5B49204602F053F90146C5
:10426800002800F0A7805849204602F04BF90028A2
:1042780000F09F805549204602F044F9002800F0DC
:10428800988005A8FFF752FF059B9E42DBD895E072
:104298000AAB07930322102307A800254C4909936A
:1042A8000895FFF752FF07A82146FFF75FFF204652
:1042B80001F0F4FE26E005A8FFF738FF03689E42E8
:1042C8007CD9A4B20121204601F0BEFE05A8FFF763
:1042D80023FF011C18BF0121204601F0C6FE6DE036
:1042E8000AAB0793032210233A49099307A800252C
:1042F8000895FFF72AFF07A82146FFF737FF204652
:1043080001F0DFFE014607A8FFF742FF089B029570
:10431800013B0093079B01952A461421404600F073
:10432800B9FA4BE005A8FFF701FF03689E4245D99B
:10433800A4B20121204601F087FE05A8FFF7ECFE94
:104348000146204601F0D4FE38E00EAD204605F8BF
:10435800104D00F011FC0346284623B11E4A934233
:1043680001D098472AE000F003FC27E005A8FFF7F2
:10437800DDFE059B0A935D1B7D1B20460B950C9566
:104388008DF81C4000F002FC03460AA907A823B1D7
:10439800124A934201D0984710E000F0EAFB0DE082
:1043A800002302210091B8F81A20029301931946BC
:1043B800B4E70121284601F047FE62E70EB0BDE8E8
:1043C800F08100BFF3660D00F6660D00FA660D0079
:1043D800FE660D0001670D00794B0D007B4B0D004B
:1043E8002DE9F0418EB004AF0546052207F10C0116
:1043F800006800F018FF002800F01981052801D096
:10440800002019E1B7F80D20B7F80F40130A43EA66
:104418000222230A43EA042492B2A4B2A7F80D2088
:10442800A7F80F40002AEBD03B7BF3B900F09CFBC8
:104438006B7FE860B7F80F209BB9B7F80D1001291A
:104448000FD1042A01D0C82ADAD1012468616C7717
:10445800284600F0D7FAFFF729FE00F08BFB20462C
:10446800EAE0501F18BF0120E6E0B4F5806F03D9D9
:104478002846FFF79FFEDAE004F1080323F007035C
:10448800E846ADEB030D04AE22463146286800F03D
:10449800CAFE84424FF0000440F0C480B7F80F30E1
:1044A800F45400F061FB3B7BE860112B72D006D816
:1044B800062B20D00F2B60D0022B09D0AEE0292B81
:1044C80025D0372B00F0B080142B40F0A78054E0A3
:1044D8006B7F43B901236B77284600F093FAFFF707
:1044E800E5FD00F047FB0023C821B7F80D20029333
:1044F8000193009106E0C823B7F80D2000930294B9
:10450800019423461946284600F0C4F98CE0AB68AC
:104518001BB9202000F072FDA860B7F80F40FE61BB
:104528003444A6423C6201D300207EE0202231467A
:10453800A86801F0F9FF07F11C00FFF7F7FD036811
:10454800A34207D2F86918B13B6A984271D3002098
:1045580084B200E05024286801F09FFB2B68AA6809
:104568005A631C8700236B7700F0FEFAA0F59C5075
:1045780008382861E860686156E0FB68B7F80F20E2
:10458800C3F30F236B8331462846FFF71DFE002334
:104598006B8349E0B7F80F303C7133449E427E612B
:1045A800BB6141D23068B86007F11400FFF7BEFD67
:1045B8007A69B7F80F30FA61961B9E1B204ABB68D0
:1045C8003E6293427E621DD00BD802F1FD3202F1A9
:1045D8000222934228D107F11C01381D00F0C9FAC4
:1045E80022E0184A934213D002F19F6202F500328A
:1045F80002F58072934217D107F11C01381D00F0B3
:10460800B8FA11E007F11C01381D00F0B2FA0BE00E
:1046180007F11C01381D00F0ACFA05E02846FFF749
:10462800C9FD01E0204600E00120C54604E0012064
:1046380002E001F019FF8BE72837BD46BDE8F0819D
:104648007274630061636F6E2DE9F04104468AB0AD
:104658000D46FFF72BFD637F022B00F09D80237F23
:10466800628B0133DBB22377002A41D1022B3FD87A
:10467800206801F03EF940B1002D40F08F8020689D
:1046880001F022FB002800F3898000F06DFA06464D
:10469800206801F02EF9677F012F05462AD120B93D
:1046A80066612046FFF786FD72E0E36844F638222B
:1046B800F31A934204D92046FFF77CFD002567E0F2
:1046C80042F21072934203D82369F31A93420FD926
:1046D800636940F6B832F31A934209D9002302936A
:1046E800019300931A460621204600F0D3F866612C
:1046F80001254DE0002FFBD1626950B1B61A40F692
:10470800B8339E42F4D9206801F0C7FA3D4667776E
:104718003EE0B21A41F288339A42E9D9206801F0A2
:10472800BCFAD4F800E0DEF834C0BEF83880BCF13A
:10473800000F06D02B4642466146704601F006F946
:104748000EE01F4B04930EF120070FCF05AD0FC5E8
:104758003B682B704246634604A9704601F020FA74
:10476800431E5D425D410DB9666111E0676801262F
:104778002683384601F0D0FE00238DE80900029315
:1047880032463B460221204600F084F823696361E3
:10479800237F013B23770EE000250CE02046FFF73E
:1047A8001FFE054600287FF46AAF206801F075FAFD
:1047B80000F0E0F9ECE728460AB0BDE8F08100BF58
:1047C800CC6C0D002DE9F04114468CB0054604343C
:1047D80040F6B8300F46984600F0C4F90FCC01AE49
:1047E8000FC623686F60337000F0BEF9A0F59C50C7
:1047F800083801AF2861E86068610FCF07AE0FC6BF
:104808003B68337007AF0FCF2C684FF0000EC4F829
:1048180034E0A4F8388020340FC43368237042F29F
:1048280027367446286801F038FA6C7700F09CF94E
:1048380007466B7F012B09D000F096F9C01BB042E8
:1048480004D800212846FFF7FFFEF2E76B7F012B13
:10485800E8D10CB0BDE8F08100B589B07C230093A5
:1048680063229623A72102A800F00CFE41F690735C
:1048780002AA06490648FFF7A5FF00F07DFE4FF49F
:10488800165100F06DFE09B05DF804FB04670D00D9
:1048980070E303202DE9F04F83B000AF04460068B1
:1048A8003D6B894616469B46EA4601F022F80028E9
:1048B80060D019F0FD0F00F0A080B9F1060F00F0EC
:1048C8009C80637F012B55D116B9668B002E56D07C
:1048D800A9F10C03082B5AD97A6BBBF1000F14BF4E
:1048E800A8464FF00008002ABA6B08F1050314BF68
:1048F80090464FF00008984408F1070323F0070397
:10490800AA18ADEB030DC2F3072376BA43EA0223D4
:10491800C7F804D08DF80090ADF80160ADF8033009
:10492800BBF1000F52D0002D50D02A4659460DF148
:10493800050001F0ABFD681D7B6B002B48D10025FD
:10494800454551D2C5EB08027B682068B2F5806FF7
:1049580028BF4FF48062591900F0B5FF06460020C1
:1049680000F000F9002E3DD1206801F096F9667735
:1049780000F000F90C37D546BD46BDE8F08F238B13
:1049880001339BB203B901232383268BA0E7E36895
:104998002269934238BF134603F1420800F0E4F855
:1049A800C0EB080000280ADB00212046FFF74CFE78
:1049B80000F0DAF8C0EB08000028F5DA8CE7217F70
:1049C800002989D12046FFF73FFE85E70520B3E798
:1049D800BB6B002BB3D01A467B68796B184401F087
:1049E80055FDACE73544ABE703D02046FFF7E2FBC3
:1049F800C0E700F0B9F82061BCE7002E7FF46CAF87
:104A080063E700001FB50022492300930292019238
:104A1800034B1121FFF73EFF05B05DF804FB00BF13
:104A280094660D00F0B5ADF2244D08AB00240546A0
:104A38000F461646059303224FF4806305A80D49D7
:104A480007930694FFF781FB394605A8FFF78EFB0D
:104A5800314605A8FFF78AFB069B0294013B0093A9
:104A68000194059B224614212846FFF713FF0DF2F7
:104A7800244DF0BD25670D0008B5024613210548F1
:104A8800FFF7D0FF00F078FD0349BDE8084000F0CB
:104A98007CBB00BF70E3032028670D0008B5094AF6
:104AA80013680A2101FB03031360074A10801846A4
:104AB800FFF7E2FF00F060FD0449BDE8084000F0A0
:104AC80064BB00BF6CE3032068E3032058670D0054
:104AD80008B50120FFF7E2FF00F04EFD044900F0A1
:104AE80054FB00F049FD0349BDE8084000F04DBB08
:104AF800156C0D0067670D0008B500210348FFF726
:104B0800A3FDBDE80840FFF7E3BF00BF70E3032043
:104B180038B50F4D00F056F8284601F071F905F147
:104B28001C00002400F06AFC0A4A0B496C63284602
:104B38002C8701F045FB094B1D605C609C60DC60C4
:104B48001C615C611C835C831C775C7738BD00BF8B
:104B580090E3032064E3032001410D0070E3032088
:104B680000F030B800F086BB00F094B800F02AB826
:104B780070477047704700007F289ABF024B53F870
:104B880020000020704700BF80690D007F289ABF71
:104B9800024B53F820000020704700BF80670D00CB
:104BA80000F010B808B5024B1B689B68019308BD5C
:104BB8006802030008B5024B1B68DB68019308BD57
:104BC8006802030008B5024B1B681B68019308BD07
:104BD8002C02030008B5024B1B685B68019308BDF3
:104BE8002C02030008B5024B1B689B68019308BDA3
:104BF8002C02030008B5024B1B68DB68019308BD53
:104C08002C02030008B5024B1B681B69019308BD01
:104C18002C02030008B5024B1B685B69019308BDB1
:104C28002C02030008B5024B1B689B6A019308BD60
:104C38002C02030008B5024B1B681B6B019308BDCF
:104C48002C02030008B5024B1B689B6F019308BD3B
:104C58002C02030008B5024B1B68DB69019308BDF1
:104C68003002030008B5024B1B681B6A019308BD9C
:104C78003002030008B5024B1B685B69019308BD4D
:104C88006C02030008B5024B1B685B68019308BD02
:104C98001802030008B5024B1B685B69019308BD45
:104CA8001802030008B5024B1B689B68019308BDF6
:104CB8004802030008B5024B1B681B69019308BD35
:104CC8004802030008B5024B1B685B69019308BDE5
:104CD8004802030008B5024B1B681B6B019308BD13
:104CE8004802030008B5024B1B685B6C019308BDC2
:104CF8004802030008B5024B1B685B69019308BDB5
:104D08006402030008B5024B1B681B6A019308BDC7
:104D18006402030008B5024B1B689B6A019308BD37
:104D28006402030008B5024B1B681B68019308BDA9
:104D38003C02030008B5024B1B68DB68019308BD01
:104D48003C02030008B5024B1B681B69019308BDB0
:104D58003C02030008B5024B1B685B69019308BD60
:104D68003C02030008B5024B1B689B69019308BD10
:104D78003C02030008B5024B1B68DB69019308BDC0
:104D88003C02030008B5024B1B681B6A019308BD6F
:104D98003C02030008B5024B1B689B6A019308BDDF
:104DA8003C02030008B5024B1B681B6A019308BD4F
:104DB8002802030008B5024B1B685B6A019308BD13
:104DC8002802030008B5024B1B689B6A019308BDC3
:104DD8002802030008B5024B1B68DB6A019308BD73
:104DE8002802030008B5024B1B681B6B019308BD22
:104DF8002802030008B5024B1B685B6B019308BDD2
:104E08002802030008B5024B1B681B6C019308BD00
:104E18002802030008B5024B1B689B69019308BD73
:104E28003802030008B5024B1B68DB69019308BD13
:104E38003802030008B5024B1B681B6A019308BDC2
:104E48003802030008B5024B1B689B6A019308BD32
:104E58003802030008B5024B1B681B6B019308BDA1
:104E68003802030008B5024B1B689B6B019308BD11
:104E78003802030008B5024B1B681B68019308BD84
:104E88004C02030008B5024B1B685B68019308BD20
:104E98004C02030008B5024B1B681B69019308BD4F
:104EA8004C02030008B5024B1B685B69019308BDFF
:104EB8004C02030008B5024B1B689B69019308BDAF
:104EC8004C02030008B5024B1B68DB69019308BD5F
:104ED8004C02030008B5024B1B681B6A019308BD0E
:104EE8004C02030008B5024B1B681B6D019308BDFB
:104EF8006002030008B5024B1B685B68019308BD9C
:104F08002002030008B5024B1B685B69019308BDCA
:104F18002002030008B5034B1B68D3F888300193BF
:104F280008BD00002002030008B5034B1B68D3F836
:104F38009430019308BD00002002030008B5024B1D
:104F48001B685B68019308BD4002030008B5024B6B
:104F58001B689B68019308BD4002030008B5024B1B
:104F68001B68DB68019308BD4002030008B5024BCB
:104F78001B681B69019308BD4002030008B5024B7A
:104F88001B685B69019308BD4002030008B5024B2A
:104F98001B689B69019308BD4002030008B5024BDA
:104FA8001B68DB69019308BD4002030008B5024B8A
:104FB8001B681B6A019308BD4002030008B5024B39
:104FC8001B681B6B019308BD4002030008B5024B28
:104FD8001B685B6B019308BD4002030008B5024BD8
:104FE8001B689B68019308BD4402030008B5024B87
:104FF8001B68DB6B019308BD4402030008B5024B34
:105008001B681B68019308BD1C02030008B5024B0E
:105018001B685B68019308BD1C02030008B5024BBE
:105028001B68DB69019308BD1C02030008B5024B2D
:105038001B68DB6B019308BD1C02030000221146AC
:105048004068FFF7B3BF002211464068FFF7BEBFB4
:1050580000224068FFF7B2BF002281F001014068DA
:10506800FFF79CBF00231A4619464068FFF78EBF1A
:1050780000231A4619464068FFF780BF00221146F0
:105088004068FFF773BF002211464068FFF75EBF14
:10509800002202214068FFF761BF00231A464068DA
:1050A800FFF74CBF024B03225A60024A1A6070474E
:1050B800CCE30320886B0D00704710B5102104461F
:1050C80001F083F8204610BD70B5084B0360044614
:1050D80000250E4640F80C5FFFF7FCFD30462671B0
:1050E800FFF7B8FDA560204670BD00BFBC6B0D0082
:1050F8000079FFF7B7BD0000044B00204FF6FF72A0
:10510800187058809A80FFF7F5BE00BFD4E30320DB
:10511800024800230360FFF7E5BD00BFDCE303207E
:10512800F8B506460D468F180024BD420CD03368EA
:1051380015F8011B9B6830469847002801DB04449A
:10514800F3E7002C08BF04462046F8BD70B50546B5
:105158000C46084649B101F0DFF92B6802462146A2
:105168002846DB68BDE87040184770BD03689B6837
:10517800184738B50D210546FFF7F8FF0A21044600
:105188002846FFF7F3FF204438BD38B50546FFF73A
:10519800DDFF04462846FFF7ECFF204438BD30B554
:1051A8008BB00B4600218DF82410012A98BF0A22E3
:1051B8000DF12304B3FBF2F505FB123303F0FF03F3
:1051C800092B94BF30333733DBB2214604F8013959
:1051D8002B46002DEED1FFF7B9FF0BB030BD10B450
:1051E8002AB903685DF8044B9B68C9B21847D2B264
:1051F8005DF8044BFFF7D3BFFFF7F1BF10B50446C6
:10520800FFF748FDE060236820465B69984700285F
:1052180008DAFFF73FFDE368C01AA3689842F2D3A3
:105228004FF0FF3010BD2DE9F04180460D468F1834
:105238000C46BC42A4EB050607D04046FFF7DEFF4C
:10524800002802DB04F8010BF3E73046BDE8F081E3
:10525800014B024A1A607047E0E30320766C0D00A8
:10526800024B1A68024B1A60704700BFF8E203202D
:10527800E4E303200021FFF745BE10B58368044628
:1052880013B1032201469847204610BD10B50446C5
:10529800FFF7F3FF204610BD0348044A04490023E2
:1052A800836000F08DBF00BFE8E3032064E30320C0
:1052B80095520D0008B50C4B33B100F05DF9036849
:1052C8001B699847002809DC084B63B100F0D6F940
:1052D80003681B699847002803DC08BDAFF300800A
:1052E800F2E7AFF3008008BD0000000000000000F6
:1052F80008B5FFF7DFFFFFF7CDFC014B186008BDCD
:1053080034E7032007B5002300931A466FF07701AE
:10531800FFF70AFE03B05DF804FB000007B54388F9
:105328000A2B08D0502B09D1094B1B683BB103B09D
:105338005DF804EB1847FFF7E5FF06E0002300934C
:105348001A466FF07701FFF7EFFD03B05DF804FB35
:10535800F8E3032010B5FFF795FC044601F0AAF81E
:10536800074B13B12046AFF3008000210448FFF734
:105378003DFE00210348BDE81040FFF7CBBD00BF4C
:105388000000000025530D00704710B51821044691
:1053980000F01BFF204610BDF0B5037D062B8DB035
:1053A8000E4600F104074FF0000402D000F1080592
:1053B80018E00CAD394605F8304D2F232A460A204F
:1053C800FFF798FC284601F0A7F833680246DB6827
:1053D8002946304698470FE024B12E213046FFF782
:1053E800C5FE044415F8011D0A223046FFF704FFE4
:1053F800BD420444F0D120460DB0F0BD10B5054BB8
:105408000446112240F8043B002101F04AF82046E6
:1054180010BD00BFCC6C0D000346074A10B543F819
:10542800042B01F1100251F8044B43F8044B91424C
:10543800F9D10A781A7010BDCC6C0D00037D042BCD
:1054480001D1406808E0062B0AD1436853B183684C
:1054580043B1C36833B10069003018BF01207047F9
:10546800002070471846704710B59DF8084044EA78
:10547800032343EA024242EA0161042341600375BF
:1054880010BD000037B5044D05609DF81850009513
:10549800FFF7EAFF03B030BDCC6C0D0037B50D78CF
:1054A8008B784A78C97800912946FFF7DDFF03B069
:1054B80030BD41747047704708B50021007CFFF784
:1054C800F9FC30EA200028BF4FF0FF3008BD08B5CE
:1054D8000121007CFFF7EEFC30EA200028BF4FF0E6
:1054E800FF3008BD08B5007CFFF7DCFC20EAE0705F
:1054F80008BD08B5007CFFF7CDFC20EAE07008BDC8
:10550800007CFFF7E7BC10B51421044600F05DFEEF
:10551800204610BD38B50446007C0D46FFF7C2FC96
:10552800002801DC607C28B12946207CFFF7CAFCF2
:1055380020EAE07038BD000010B50446002363601F
:105548004FF47A73A360054B236001230846217446
:1055580063741146FFF78EFC204610BDE06C0D0009
:105568000022007CFFF78EBC10B5142204460021EF
:1055780000F097FF204610BD30B50E4D87B001A84A
:10558800FFF7F2FF296811F0010410D12846FEF751
:1055980084FD60B101AA21460748FFF7CDFF2846E0
:1055A800FEF780FD054A0649034800F009FE024857
:1055B80007B030BDFCE3032000E4032064E30320CC
:1055C800BF540D0070474174704708B5007CFFF761
:1055D800E1FB20EAE07008BD08B5007CFFF7B2FBEC
:1055E80020EAE07008BD08B5007CFFF7BBFB30EA95
:1055F800200028BF4FF0FF3008BD08B5007CFFF73A
:10560800A9FB30EA200028BF4FF0FF3008BD007C1E
:10561800FFF7B0BB10B51421044600F0D6FD2046B4
:1056280010BD70B5457C04460E4625B9007CFFF7D1
:10563800B1FB002805DD3146207CBDE87040FFF74E
:1056480079BB284670BD000010B5044608461146CF
:10565800002262604FF47A72A260054A2260012239
:10566800207462741A46FFF75DFB204610BD00BF28
:10567800106D0D00007CFFF785BB000038B50C4DA0
:10568800296811F0010411D12846FEF706FD68B11A
:10569800084A094B09482146FFF7D6FF2846FEF776
:1056A80001FD074A0749054800F08AFD034838BD4F
:1056B800ACE40320B0E4032028E4032014E403202E
:1056C80064E30320CD550D007047F8B5064615462E
:1056D8000C468F18BC4206D0336814F8011B9B682F
:1056E80030469847F6E72846F8BD0022007CFFF7C9
:1056F80059BB0021007CFFF75DBB0021007CFFF750
:1057080061BB0021007CFFF765BB0021007CFFF72F
:1057180069BB10B51421044600F057FD204610BDA2
:1057280010B504464FF47A730846A3600021044B71
:10573800207461602360FFF765FB204610BD00BF41
:10574800406D0D000021007CFFF754BB002211467C
:105758004068FFF72BBC002211464068FFF736BCB3
:1057680000224068FFF72ABC002281F0010140684E
:10577800FFF714BC00231A4619464068FFF706BC19
:1057880000231A4619464068FFF7F8BB0022114665
:105798004068FFF7EBBB002211464068FFF7D6BB15
:1057A800002202214068FFF7D9BB00231A4640684F
:1057B800FFF7C4BB38B5054688B104684CB1A36887
:1057C8001BB103222146204698471021204600F0AD
:1057D800FCFC28461421BDE8384000F0F6BC38BD72
:1057E80010B103685B681847704710B50368044632
:1057F800BBB15868FFF756FA78B923685A7C12B9D2
:105808005868FFF757FA23685868FFF75BFA20686B
:105818000023236028B1FFF7CDFF206808B1FFF708
:10582800C9FF204610BD000038B50C4B0360044684
:10583800D0F8CC0108B1FEF72EFCD4F8C45135B12C
:105848002846FFF7D2FF0421284600F0BEFCA068D6
:1058580008B1FFF7C5FF204638BD00BF686D0D00D1
:1058680038B50D4C0D4B23600025022304F5E47078
:105878006360A560C4F8C451C4F8C851FFF732FA90
:10588800074BC4F8CC5123602046064A0649BDE8B8
:10589800384000F095BC00BF34E50320506E0D0081
:1058A800686D0D0064E3032031580D0037B502AC74
:1058B800036804F8011DDD6B01224FF0FF33214618
:1058C800A84703B030BD10B40368DC6B4FF0FF335A
:1058D800A4465DF8044B604737B502AC036804F88A
:1058E800011DDD6B214613460122A84703B030BDD8
:1058F800704738B543691A68002A044605DAB3F8D0
:105908008620B3F884309A4201D001250BE0036861
:105918001B699847002814BF0125002503D1236877
:105928002046DB6A9847284638BD43691868C04353
:10593800C00F704770470020704710B51421044607
:1059480000F043FC204610BDFEF7A3BB2DE9F04351
:105958009846036893B0DB6A0C4606461746984794
:1059680012AB002543F8485D2A4629462046FFF732
:1059780021F900283ADB009B002B39D05B69002B0A
:1059880036D006A8FFF73AFD009B5C696378022BC6
:1059980001D1211D13E00A2B14D11122294601A897
:1059A80000F07FFDA36833BBE36823BB4FF6FF70AD
:1059B8002569FFF7A7F985421DD104F1140106A84E
:1059C800FFF76CFD06A8FFF739FD88B1336807AD0E
:1059D800D3F82090184B0C930FCD0DAC0FC42B6847
:1059E80023703A4643460CA93046C84704461CE093
:1059F8004FF0FF3419E004F1080301AD18341868BA
:105A080059682A4603C20833A3421546F7D106232C
:105A180001A90CA80DAD8DF81430FFF7FDFC0FCDD2
:105A280007AC0FC42B682370CCE70098FFF7BAF8CF
:105A3800204613B0BDE8F083CC6C0D007FB5164648
:105A480000224260029203925A1C04460D4608D076
:105A58004FF47A72B3FBF2F1029102FB11314A431F
:105A6800039260690823009341F205026B4440F6F3
:105A7800FF710068FFF7CEF9002808DB6069002392
:105A8800324629460068FFF7E5F9002804DAFFF7EF
:105A9800CDFA03686360002004B070BD10B50368D8
:105AA80004469B689847A368013BA3602BB9236809
:105AB8002046DB68BDE81040184710BD70B50446A5
:105AC8004D69054B44F8043B8C3506460FCD0FC491
:105AD8002B682370304670BDCC6C0D0010B543693F
:105AE800B3F88620B3F884309A42044605D0626938
:105AF800B2F884301344187910BD03681B699847BD
:105B08000028F4D14FF0FF3010BD10B54369B3F849
:105B18008620B3F884309A42044608D06269B2F805
:105B28008430591C1344A2F88410187910BD0368F6
:105B38001B6998470028F1D14FF0FF3010BDF8B528
:105B480043691746B3F88620B3F884309A4205466D
:105B58000E4606D103681B69984710B94FF0FF3409
:105B680014E06969B1F88430B1F88640E41ABC429F
:105B780028BF3C46194422460431304600F086FCD2
:105B88006A69B2F884302344A2F884302046F8BD0C
:105B980042690023A2F884304269A2F8863070472F
:105BA8002DE9F041984603680D468AB0DB6A06463F
:105BB800174698472B7D7469042B0CBF02200A20D6
:105BC80006220121FFF74EF9206073691C68002C3A
:105BD8005BDB3046FFF7DCFFB8F1000F17D000237E
:105BE80003A95FFA88F00393ADF81030FFF742F885
:105BF800002849DB70690623009341F20B0203ABCE
:105C080040F6FF710068FFF705F900283CDB1C240B
:105C18002246002103A800F044FC2B7D8DF80C409F
:105C2800042B0CD1022338468DF80D30FFF772F89B
:105C3800ADF80E006868FFF765F8049013E00A23D2
:105C480038468DF80D30FFF765F805ACADF80E0055
:105C58002B1D05F1140718685968224603C208333A
:105C6800BB421446F7D173691C2203A91868FFF7D1
:105C7800E1F8002808DB2C1D0FCC76698C360FC69E
:105C880023683370012404E0044633683046DB6A35
:105C9800984720460AB0BDE8F08110B5436904462C
:105CA8001868002801DBFFF7BDF863694FF0FF3281
:105CB8001A606069112200218C3000F0F2FB204646
:105CC800BDE81040FFF764BF30B54269B2F88630CE
:105CD8008BB004461BB1B2F884209A4240D0636965
:105CE800186800283FDBB3F886507F2D3BD8191D74
:105CF800C5F1800208232944FFF7A4F800280CDD29
:105D08006369B3F886200AB9A3F884206269B2F8F7
:105D180086301844A2F8860025E0FFF787F9036863
:105D28000B2B20D0FFF782F903680B2B1BD0202305
:105D3800002502930395FFF779F9036801930E4B49
:105D4800009302AA2B460D493220FFF7CBF863696E
:105D58001868FFF767F863694FF0FF321A6002E0CE
:105D6800FFF716FFBBE76269B2F88630B2F8840025
:105D7800181A0BB030BD00BF036E0D00FC6D0D008E
:105D880010B5002304460160A0F88430A0F88630DE
:105D98008830FFF733FB204610BD00004FF47A72BD
:105DA80070B500238260144A4360026043618361D6
:105DB8000446A0200E46FEF76AF9054610B13146A2
:105DC800FFF7DEFF1420FEF762F9034628B101222F
:105DD80042608260094A02600561A0696561A36149
:105DE80028B14368013B43600BB9FFF757FE2046D3
:105DF800FFF7CEFE204670BDB86D0D009C6D0D00FE
:105E080010B54FF0FF310446FFF7C8FF204610BD1C
:105E180010B504460068002801DBFFF703F82046A8
:105E280010BD10B504692046FFF7F2FF24B12046E3
:105E3800BDE81040FEF72DB910BD0022114640689C
:105E4800FFF794B8002211464068FFF7AFB8002268
:105E580011464068FFF7BAB800224068FFF7AEB8AD
:105E6800002281F001014068FFF798B800231A4624
:105E780019464068FFF78AB800231A461946406851
:105E8800FFF77CB8002211464068FFF75FB8002290
:105E980002214068FFF762B800231A464068FFF7FE
:105EA8004DB80000024B04225A60024A1A6070473B
:105EB80004E703201C6E0D0000231A464068FFF714
:105EC8003DB8002202214068FFF748B80022114679
:105ED8004068FFF73BB8002211464068FFF746B814
:105EE80000231A4619464068FFF748B800231A46A7
:105EF80019464068FFF74AB8002281F0010140685E
:105F0800FFF74CB800224068FFF758B80022114646
:105F18004068FFF75BB8002211464068FFF746B8B3
:105F28002DE9F043002495B016460D460746FFF7C5
:105F380065FA214620220CA8009400F0B2FA40230A
:105F48000C9321466B460CAA3046FEF733FE0446F6
:105F5800002844D1024601216868FFF707F80221AA
:105F6800804622466868FFF701F8009E8146214670
:105F7800002E34D0002932D17368022B02D00A2BAC
:105F880009D02AE0B8F1000F27D0716938460431EA
:105F9800FFF784FA20E0B9F1000F1ED074691122CE
:105FA80001A800F07EFA06238DF8143001AD04F143
:105FB80008031834186859682A4603C20833A342EC
:105FC8001546F7D101A906A807ADFFF725FA0FCDA9
:105FD8003C1D0FC42B6823700121F669C8E700989F
:105FE800FEF7E0FD384615B0BDE8F083024B034AE2
:105FF8001A6000225A6070470CE70320506E0D00AB
:1060080010B504460F48FFF773F828B1A4F10B0345
:10601800022B01D8002010BD00F0B2F8FFF792FB68
:1060280008B1012CF6D9FFF729FBFFF723FB18B1BC
:10603800A4F10903012BEDD9232C8CBF00200120EA
:1060480010BD00BF14E70320232838B504460D46C9
:106058000AD8FF2908D0FFF7D3FF28B129462046E0
:10606800BDE83840FEF7BEBD38BD38B504460D461C
:10607800FEF7C0FDFF2810D0062804D84D2323FAC8
:1060880000F0C30709D42046FFF7BAFF28B1294614
:106098002046BDE83840FEF7B5BD38BD10B504460A
:1060A800FEF7A8FD0438C0B2012808D92046FFF73A
:1060B800A7FF20B12046BDE81040FEF7ABBD002089
:1060C80010BD0D2810B504469CBF0E34A4B220465E
:1060D800FFF796FF50B103212046FEF77BFD03280A
:1060E80004D12046BDE81040FEF7A4BD002010BD35
:1060F80038B504460D46FFF783FFF0B1042120466A
:10610800FEF768FD042805D1A9B22046BDE838404D
:10611800FEF788BD02212046FEF75CFD02280CD15F
:106128002046FEF767FD012801D0042805D129463D
:106138002046BDE83840FEF785BD38BD70B50C4C2B
:106148000C4E0D4D00212046FEF7BEFF20460B4C9D
:106158003246294600F034F801212046FEF7B4FF04
:10616800324629462046BDE8704000F029B800BFF5
:1061780014E7032064E30320C1500D0024E7032043
:1061880038B50B4D296811F001040FD12846FDF7E9
:1061980084FF58B121460748FFF7C2FA2846FDF7A1
:1061A80081FF054A0549034800F00AF8014838BD4F
:1061B80038E703203CE7032064E30320D1560D00B1
:1061C8000B460146184600F053B9FDF762BF0000C0
:1061D800184B1A68D1075CBF01221A60164B1A685F
:1061E800D2075CBF01221A60144B1A68D0075CBF43
:1061F80001221A60124B1A68D1075CBF01221A608B
:10620800104B1A68D2075CBF01221A600E4B1A683D
:10621800D0075CBF01221A600C4B1A68D1075CBF1B
:1062280001221A600A4B1A68D2075CBF01221A6061
:10623800704700BF6CE7032068E7032064E703208A
:1062480060E703205CE7032058E7032054E70320B6
:1062580050E70320244B1A68D0075CBF01221A605C
:10626800224B1A68D1075CBF01221A60204B1A68BA
:10627800D2075CBF01221A601E4B1A68D0075CBFA8
:1062880001221A601C4B1A68D1075CBF01221A60F0
:106298001A4B1A68D2075CBF01221A60184B1A6899
:1062A800D0075CBF01221A60164B1A68D1075CBF81
:1062B80001221A60144B1A68D2075CBF01221A60C7
:1062C800124B1A68D0075CBF01221A60104B1A687B
:1062D800D1075CBF01221A600E4B1A68D2075CBF57
:1062E80001221A60704700BF9CE7032098E703204B
:1062F80094E7032090E703208CE7032088E7032036
:1063080084E7032080E703207CE7032078E7032065
:1063180074E7032070E70320244B1A68D0075CBF9A
:1063280001221A60224B1A68D1075CBF01221A6049
:10633800204B1A68D2075CBF01221A601E4B1A68EC
:10634800D0075CBF01221A601C4B1A68D1075CBFDA
:1063580001221A601A4B1A68D2075CBF01221A6020
:10636800184B1A68D0075CBF01221A60164B1A68CE
:10637800D1075CBF01221A60144B1A68D2075CBFB0
:1063880001221A60124B1A68D0075CBF01221A60FA
:10639800104B1A68D1075CBF01221A600E4B1A68AD
:1063A800D2075CBF01221A60704700BFCCE7032008
:1063B800C8E70320C4E70320C0E70320BCE70320A5
:1063C800B8E70320B4E70320B0E70320ACE70320D5
:1063D800A8E70320A4E70320A0E70320184B1A68C6
:1063E800D1075CBF01221A60164B1A68D2075CBF3E
:1063F80001221A60144B1A68D0075CBF01221A6088
:10640800124B1A68D1075CBF01221A60104B1A6838
:10641800D2075CBF01221A600E4B1A68D0075CBF16
:1064280001221A600C4B1A68D1075CBF01221A605E
:106438000A4B1A68D2075CBF01221A60704700BF76
:10644800ECE70320E8E70320E4E70320E0E7032084
:10645800DCE70320D8E70320D4E70320D0E70320B4
:106468000A22002100F0FAB80A22002100F0F6B84A
:1064780010B5054C13462CB10A4601460220AFF36D
:10648800008010BD204610BD0000000010B5431E5E
:106498000A44914204D011F8014B03F8014FF8E780
:1064A80010BD02440346934202D003F8011BFAE7E9
:1064B8007047000038B5124B1C68A36B0546D3B96A
:1064C8001820FEF79BFD43F20E33A06303804AF6C3
:1064D800CD33438041F2342383804EF26D63C38011
:1064E8004DF6EC630381052343810B23838101224D
:1064F8000023C0E90423A36B00221D615A6138BD43
:1065080060E3032010F8012B11F8013B012A28BF92
:106518009A42F7D0D01A7047034613F8012B002A85
:10652800FBD1181A0138704710B5034642B111F86B
:10653800014B03F8014B013A002CF7D11A4400E053
:1065480010BD934202D003F8014BFAE710BD0000DA
:106558002DE9F04780464048D0F800900F463D4668
:1065680015F8014B09EB0400407800F0080000F032
:10657800FF0608B12F46F2E72D2C03D1BD1C7C780D
:10658800012603E02B2C04BF7C78BD1C13B1102B13
:106598000AD15BE0302C57D1287800F0DF0058286A
:1065A8004DD16C7810230235002E14BF4FF0004CEB
:1065B8006FF0004C0027BCFBF3FA384603FB1ACCFB
:1065C80009EB040E9EF801E01EF0040F01D0303CE8
:1065D8000BE01EF0030E1BD0BEF1010F0CBF4FF0F5
:1065E800370E4FF0570ECEEB0404A34210DDB7F17F
:1065F800FF3F0AD0504506D801D1644503DC03FBB0
:106608000040012701E04FF0FF3715F8014BD7E7AD
:106618007B1C0CD1002E4FF0220314BF4FF000401A
:106628006FF00040C8F800302AB9BDE8F08706B11D
:10663800404272B107B1691E1160BDE8F08730248D
:10664800002BB1D10823AFE70A23ADE7302CA3D044
:10665800AAE7BDE8F08700BFFCE2032013460A461C
:10666800014602480068FFF773BF00BF60E30320DC
:106678001D400D0059400D0085400D0089400D005A
:1066880000000000626C6E6B696E660076657200D1
:10669800302E352E3400682D62656174003130006B
:1066A800627566662D696E00313032340064657635
:1066B800005061727469636C65006275696C64008E
:1066C8004A756C20203720323031392031363A3340
:1066D800343A3231000000256900256C6900636C8A
:1066E800656172646973706C617900696E006F75B9
:1066F800740070776D006477006177003734623812
:10670800393832393739616334386432623439633D
:1067180031653332616463663739653300767700F3
:1067280073637265656E777269746500616464008D
:10673800737562006D756C740064697600636C65CE
:106748006172616C6C006261636B73706163650098
:106758006E756D65726963616C496E707574006FF2
:1067680070657261746F722D6465636973696F6EA9
:106778002D736574000000007B4B0D007B4B0D00F2
:106788007B4B0D007B4B0D007B4B0D007B4B0D00B5
:106798007B4B0D007B4B0D007B4B0D007B4B0D00A5
:1067A8007B4B0D007B4B0D007B4B0D007B4B0D0095
:1067B8007B4B0D007B4B0D007B4B0D007B4B0D0085
:1067C8007B4B0D007B4B0D007B4B0D007B4B0D0075
:1067D8007B4B0D007B4B0D007B4B0D007B4B0D0065
:1067E8007B4B0D007B4B0D007B4B0D007B4B0D0055
:1067F8007B4B0D007B4B0D007B4B0D007B4B0D0045
:106808007B4B0D007B4B0D007B4B0D007B4B0D0034
:106818007B4B0D007B4B0D007B4B0D007B4B0D0024
:106828007B4B0D007B4B0D007B4B0D007B4B0D0014
:106838007B4B0D007B4B0D007B4B0D007B4B0D0004
:106848007B4B0D007B4B0D007B4B0D007B4B0D00F4
:106858007B4B0D007B4B0D007B4B0D007B4B0D00E4
:106868007B4B0D007B4B0D007B4B0D007B4B0D00D4
:106878007B4B0D007B4B0D007B4B0D007B4B0D00C4
:106888007B4B0D007B4B0D007B4B0D007B4B0D00B4
:106898007B4B0D007B4B0D007B4B0D007B4B0D00A4
:1068A8007B4B0D007B4B0D007B4B0D007B4B0D0094
:1068B8007B4B0D007B4B0D007B4B0D007B4B0D0084
:1068C8007B4B0D007B4B0D007B4B0D007B4B0D0074
:1068D8007B4B0D007B4B0D007B4B0D007B4B0D0064
:1068E8007B4B0D007B4B0D007B4B0D007B4B0D0054
:1068F8007B4B0D007B4B0D007B4B0D007B4B0D0044
:106908007B4B0D007B4B0D007B4B0D007B4B0D0033
:106918007B4B0D007B4B0D007B4B0D007B4B0D0023
:106928007B4B0D007B4B0D007B4B0D007B4B0D0013
:106938007B4B0D007B4B0D007B4B0D007B4B0D0003
:106948007B4B0D007B4B0D007B4B0D007B4B0D00F3
:106958007B4B0D007B4B0D007B4B0D007B4B0D00E3
:106968007B4B0D007B4B0D007B4B0D007B4B0D00D3
:106978007B4B0D007B4B0D00794B0D00794B0D00C7
:10698800794B0D00794B0D00794B0D00794B0D00BB
:10699800794B0D00794B0D00794B0D00794B0D00AB
:1069A800794B0D00794B0D00794B0D00794B0D009B
:1069B800794B0D00794B0D00794B0D00794B0D008B
:1069C800794B0D00794B0D00794B0D00794B0D007B
:1069D800794B0D00794B0D00794B0D00794B0D006B
:1069E800794B0D00794B0D00794B0D00794B0D005B
:1069F800794B0D00794B0D00794B0D00794B0D004B
:106A0800794B0D00794B0D00794B0D00794B0D003A
:106A1800794B0D00794B0D00794B0D00794B0D002A
:106A2800794B0D00794B0D00794B0D00794B0D001A
:106A3800794B0D00794B0D00794B0D00794B0D000A
:106A4800794B0D00794B0D00794B0D00794B0D00FA
:106A5800794B0D00794B0D00794B0D00794B0D00EA
:106A6800794B0D00794B0D00794B0D00794B0D00DA
:106A7800794B0D00794B0D00794B0D00794B0D00CA
:106A8800794B0D00794B0D00794B0D00794B0D00BA
:106A9800794B0D00794B0D00794B0D00794B0D00AA
:106AA800794B0D00794B0D00794B0D00794B0D009A
:106AB800794B0D00794B0D00794B0D00794B0D008A
:106AC800794B0D00794B0D00794B0D00794B0D007A
:106AD800794B0D00794B0D00794B0D00794B0D006A
:106AE800794B0D00794B0D00794B0D00794B0D005A
:106AF800794B0D00794B0D00794B0D00794B0D004A
:106B0800794B0D00794B0D00794B0D00794B0D0039
:106B1800794B0D00794B0D00794B0D00794B0D0029
:106B2800794B0D00794B0D00794B0D00794B0D0019
:106B3800794B0D00794B0D00794B0D00794B0D0009
:106B4800794B0D00794B0D00794B0D00794B0D00F9
:106B5800794B0D00794B0D00794B0D00794B0D00E9
:106B6800794B0D00794B0D00794B0D00794B0D00D9
:106B7800794B0D00794B0D0000000000000000006B
:106B8800A3500D0099500D008F500D0085500D0039
:106B980079500D006D500D0061500D0059500D00D9
:106BA8004F500D0045500D00295F0D0000000000FA
:106BB80000000000C1500D00C3500D0066006C6E4F
:106BC80000666E00636F64650064657461696C00DB
:106BD8000D0A00253031307520005D20002C200082
:106BE80028293A2000205B00636F6465203D20005F
:106BF80064657461696C73203D200062617564008E
:106C080053657269616C0053657269616C31007417
:106C180079706500706172616D00636D640069640C
:106C280000686E64007374726D0066696C74006C41
:106C3800766C0061646448616E646C6572007265AC
:106C48006D6F766548616E646C657200656E756D12
:106C580048616E646C657273004A534F4E53747288
:106C680065616D4C6F6748616E646C657200617038
:106C780070006E6F6E6500747261636500696E66A0
:106C88006F007761726E006572726F720070616E6C
:106C98006963005A00252B3033643A253032750079
:106CA80025592D256D2D25645425483A254D3A251D
:106CB80053257A0061736374696D650000000000F4
:106CC80000000000A1530D0091530D0093530D00D7
:106CD8000000000000000000BF540D000F550D001B
:106CE8001D550D0029510D00FB540D00C1540D0018
:106CF800D7540D0009550D00ED540D00BB540D007F
:106D08000000000000000000CD550D001D560D00CC
:106D18002B560D0029510D00E1550D0003560D00AD
:106D2800EF550D0017560D00CF550D00D3550D002A
:106D38000000000000000000D1560D001B570D0098
:106D4800F3560D00D3560D00FB560D0003570D00EA
:106D58000B570D0013570D00000000000000000045
:106D6800B3570D00A9570D009F570D0095570D00FB
:106D780089570D007D570D0071570D0069570D009B
:106D88005F570D0055570D00295F0D0000000000EA
:106D9800000000003D590D0043590D002B5E0D0009
:106DA80051590D003F590D0000000000000000007F
:106DB800CD400D000D410D00B5580D00CF580D0008
:106DC800D15C0D00135B0D00E55A0D00F9580D005C
:106DD800A95B0D0055590D00475B0D00A35C0D0024
:106DE800FB580D0033590D00E1580D00455A0D00B0
:106DF800C55A0D00776972696E67007265637620FF
:106E08006572726F72203D2025640000000000004A
:106E180000000000A15E0D00975E0D008D5E0D0064
:106E2800435E0D00815E0D00755E0D00695E0D000C
:106E3800615E0D00575E0D004D5E0D00295F0D006F
:106E48000000000000000000C15E0D00CB5E0D00D8
:106E5800D55E0D00DF5E0D00E95E0D00F55E0D00EC
:106E6800015F0D000D5F0D00155F0D001F5F0D0028
:106E7800295F0D0000202020202020202020282805
:106E880028282820202020202020202020202020E2
:106E98002020202020881010101010101010101022
:106EA8001010101010040404040404040404041052
:106EB80010101010101041414141414101010101E0
:106EC80001010101010101010101010101010101AA
:106ED80010101010101042424242424202020202B6
:106EE800020202020202020202020202020202027A
:106EF800101010102000000000000000000000002A
:106F08000000000000000000000000000000000079
:106F18000000000000000000000000000000000069
:106F28000000000000000000000000000000000059
:106F38000000000000000000000000000000000049
:106F48000000000000000000000000000000000039
:106F58000000000000000000000000000000000029
:106F68000000000000000000000000000000000019
:106F78000000000000000000000000000000000009
:106F880000000000000000000000000000000000F9
:106F980000000000000000000000000000000000E9
:106FA80000000000000000000000000000000000D9
:106FB80000000000000000000000000000000000C9
:106FC80000000000000000000000000000000000B9
:106FD800000000000000000043000000194B0D00F5
:106FE800694B0D00754B0D00A94B0D00AD500D0000
:106FF80001510D0019510D0059520D0069520D0033
:10700800A1520D0069580D00AD5E0D00F55F0D0031
:1070180045610D00D9610D005D620D0021630D0011
:08702800E5630D00000000000B
:10703000BC6C0D007C6E0D0000000000806F0D0028
:10704000A06F0D00C06F0D000000000000000000E8
:107050000000000000000000E06F0D0000000000D4
:107060000000000000000000000000000000000020
:107070000000000000000000000000000000000010
:107080000000000000000000000000000000000000
:0C709000000000000000000000E30320EE
:10709C00FFFFFFFF00000102030405060708090AB1
:1070AC000B0C0D0E0F101112131415161718191AAC
:0870BC001B1C1D1E1F202800F3
:0470C40078563412B4
:04000003D0004018D1
:00000001FF
