:02000002D0002C
:1040000000400D00C8810D00000006000C000501F5
:08401000040115050000000089
:10401800E0760D0009480A49884208B505D0094AE2
:10402800824202D0121A03F065FA0748074A0021B3
:10403800121A03F06AFA014808BD00BFA8E203207B
:1040480030810D0018E3032018E30320F0E7032074
:1040580070B501F003FD074C074BE41AA4080025CE
:104068001E46A54204D056F8253098470135F8E792
:1040780070BD00BF24810D00DC800D0000F0A4BCE1
:1040880008B500F0DDFFBDE8084001F0B5BC01F05F
:1040980059BA01F05FBA01F05DBA0078B0FA80F061
:1040A80040097047012303707047000008B501F00C
:1040B80095F8034B1860BDE8084001F033BA00BF1B
:1040C80034E7032038B584690A4B036005467CB1A0
:1040D8006368013B63605BB9236820469B68984727
:1040E800A368013BA3601BB923682046DB68984797
:1040F800284638BDB07E0D0010B50446FFF7E2FF34
:10410800204610BD10B50446FFF7DCFF20461C21F1
:1041180002F0DFFB204610BD03682BB142689342D2
:1041280002D2184603F0D0B90020704738B50568A8
:10413800044645B143689D4205D2284603F020FA5B
:10414800013005442560204638BD70B543680446F3
:1041580080689E188642154606D82068184403F0E1
:10416800C9F963681D44656070BD000070B50446F8
:104178004068A6682568054A0B46311A284401F0AC
:10418800F1F9636801301844606070BD47770D002D
:1041980070B504464068A6682568054A0B46311A7A
:1041A800284401F0DFF9636801301844606070BD8D
:1041B8004A770D0008B5086803F086F9034B10B17B
:1041C80001221A6008BD186008BD00BF94E30320EF
:1041D80008B5086803F078F9014B186008BD00BFFE
:1041E80098E3032008B5086803F06EF9014B1860DE
:1041F80008BD00BF9CE3032008B5086803F064F914
:10420800014B186008BD00BFA0E3032008B508688B
:1042180003F05AF9014B186008BD00BFA4E303205E
:1042280008B5086803F050F9014B186008BD00BFD5
:10423800A8E3032008B5086803F046F9014B1860A5
:1042480008BD00BFACE3032008B5086803F03CF9DB
:10425800014B186008BD00BFB0E3032008B508682B
:1042680003F032F9014B186008BD00BFB4E3032026
:1042780008B5086803F028F9014B186008BD00BFAD
:10428800B8E3032008B5086803F01EF9014B18606D
:1042980008BD00BF28E3032008B5086803F014F937
:1042A800014B186008BD00BF1CE3032008B508686F
:1042B80003F00AF9014B186008BD00BF34E303207E
:1042C80008B5086803F000F9014B186008BD00BF85
:1042D800C4E3032008B5086803F0F6F8014B18603A
:1042E80008BD00BF2CE3032008B5086803F0ECF80C
:1042F800014B186008BD00BFBCE3032008B508687F
:1043080003F0E2F8014B186008BD00BF30E303205A
:1043180008B5086803F0D8F8014B186008BD00BF5D
:10432800C0E3032008B500234377006802F039F89A
:10433800BDE8084000F0C2BE2DE9F0418E188EB0ED
:10434800B14280460D4617460591069680F0EE80EC
:104358000B88ADF8123005A8FFF7E8FE03689E4207
:1043680040F2E48005A8FFF7D7FEBDF8123047F207
:1043780076229342C4B200F0A0800DD847F26122A1
:10438800934265D047F26422934239D046F6705280
:10439800934240F0BD802FE047F26472934242D0CE
:1043A80047F27672934200F0998047F26172934225
:1043B80040F0AE806EE005A8FFF7AEFEC5B205A8D6
:1043C800FFF7B4FE059C5B49204603F0CFF8014691
:1043D800002800F0A7805849204603F0C7F80028B5
:1043E80000F09F805549204603F0C0F8002800F0EF
:1043F800988005A8FFF79AFE059B9E42DBD895E0BA
:104408000AAB07930322102307A800254C490993F8
:104418000895FFF79AFE07A82146FFF7A7FE204652
:1044280002F0C0F926E005A8FFF780FE03689E4267
:104438007CD9A4B20121204602F08AF905A8FFF729
:104448006BFE011C18BF0121204602F092F96DE0B5
:104458000AAB0793032210233A49099307A80025BA
:104468000895FFF772FE07A82146FFF77FFE204652
:1044780002F0ABF9014607A8FFF78AFE089B0295F0
:10448800013B0093079B01952A461421404600F002
:10449800B9FA4BE005A8FFF749FE03689E4245D9E3
:1044A800A4B20121204602F053F905A8FFF734FE13
:1044B8000146204602F0A0F938E00EAD204605F886
:1044C800104D00F0FDFD0346284623B11E4A9342D5
:1044D80001D098472AE000F0EFFD27E005A8FFF794
:1044E80025FE059B0A935D1B7D1B20460B950C95AD
:1044F8008DF81C4000F0EEFD03460AA907A823B179
:10450800124A934201D0984710E000F0D6FD0DE022
:10451800002302210091B8F81A200293019319464A
:10452800B4E70121284602F013F962E70EB0BDE8AE
:10453800F08100BF4E770D0051770D0055770D00C3
:1045480059770D005C770D00C1500D00C3500D0068
:104558002DE9F0418EB004AF0546052207F10C01A4
:10456800006801F0E3F9002800F01981052801D05E
:10457800002019E1B7F80D20B7F80F40130A43EAF5
:104588000222230A43EA042492B2A4B2A7F80D2017
:10459800A7F80F40002AEBD03B7BF3B900F088FD69
:1045A8006B7FE860B7F80F209BB9B7F80D100129A9
:1045B8000FD1042A01D0C82ADAD1012468616C77A6
:1045C800284600F0D7FAFFF771FD00F077FD204686
:1045D800EAE0501F18BF0120E6E0B4F5806F03D968
:1045E8002846FFF79FFEDAE004F1080323F00703EB
:1045F800E846ADEB030D04AE22463146286801F0CB
:1046080095F984424FF0000440F0C480B7F80F30A9
:10461800F45400F04DFD3B7BE860112B72D006D8B6
:10462800062B20D00F2B60D0022B09D0AEE0292B0F
:1046380025D0372B00F0B080142B40F0A78054E031
:104648006B7F43B901236B77284600F093FAFFF795
:104658002DFD00F033FD0023C821B7F80D2002938B
:104668000193009106E0C823B7F80D200093029447
:10467800019423461946284600F0C4F98CE0AB683B
:104688001BB9202000F05EFFA860B7F80F40FE615C
:104698003444A6423C6201D300207EE02022314609
:1046A800A86802F075FF07F11C00FFF73FFD0368DB
:1046B800A34207D2F86918B13B6A984271D3002027
:1046C80084B200E05024286801F06BFE2B68AA68C9
:1046D8005A631C8700236B7700F0EAFCA0F59C5016
:1046E80008382861E860686156E0FB68B7F80F2071
:1046F800C3F30F236B8331462846FFF71DFE0023C3
:104708006B8349E0B7F80F303C7133449E427E61B9
:10471800BB6141D23068B86007F11400FFF706FDAD
:104728007A69B7F80F30FA61961B9E1B204ABB685E
:104738003E6293427E621DD00BD802F1FD3202F137
:104748000222934228D107F11C01381D00F0B5FC64
:1047580022E0184A934213D002F19F6202F5003218
:1047680002F58072934217D107F11C01381D00F041
:10477800A4FC11E007F11C01381D00F09EFC0BE0C1
:1047880007F11C01381D00F098FC05E02846FFF7EA
:10479800C9FD01E0204600E00120C54604E00120F3
:1047A80002E002F095FE8BE72837BD46BDE8F081B0
:1047B8007274630061636F6E2DE9F04104468AB03C
:1047C8000D46FFF773FC637F022B00F09D80237F6B
:1047D800628B0133DBB22377002A41D1022B3FD809
:1047E800206801F00AFC40B1002D40F08F8020685D
:1047F80001F0EEFD002800F3898000F059FC064620
:10480800206801F0FAFB677F012F05462AD120B9FD
:1048180066612046FFF786FD72E0E36844F63822B9
:10482800F31A934204D92046FFF77CFD002567E080
:1048380042F21072934203D82369F31A93420FD9B4
:10484800636940F6B832F31A934209D900230293F8
:10485800019300931A460621204600F0D3F86661BA
:1048680001254DE0002FFBD1626950B1B61A40F620
:10487800B8339E42F4D9206801F093FD3D4667772E
:104888003EE0B21A41F288339A42E9D9206801F031
:1048980088FDD4F800E0DEF834C0BEF83880BCF1FA
:1048A800000F06D02B4642466146704601F0D2FB07
:1048B8000EE01F4B04930EF120070FCF05AD0FC577
:1048C8003B682B704246634604A9704601F0ECFC35
:1048D800431E5D425D410DB9666111E067680126BE
:1048E8002683384602F04CFE00238DE80900029327
:1048F80032463B460221204600F084F82369636172
:10490800237F013B23770EE000250CE02046FFF7CC
:104918001FFE054600287FF46AAF206801F041FDBC
:1049280000F0CCFBECE728460AB0BDE8F08100BFF8
:10493800C47D0D002DE9F04114468CB005460434C1
:1049480040F6B8300F46984600F0B0FB0FCC01AEE9
:104958000FC623686F60337000F0AAFBA0F59C5067
:10496800083801AF2861E86068610FCF07AE0FC64D
:104978003B68337007AF0FCF2C684FF0000EC4F8B8
:1049880034E0A4F8388020340FC43368237042F22E
:1049980027367446286801F004FD6C7700F088FB20
:1049A80007466B7F012B09D000F082FBC01BB04289
:1049B80004D800212846FFF7FFFEF2E76B7F012BA2
:1049C800E8D10CB0BDE8F08100B589B07C23009334
:1049D80063229623A72102A801F0D8F841F6907324
:1049E80002AA06490648FFF7A5FF01F049F94FF466
:1049F800165101F039F909B05DF804FB5F770D0035
:104A080038E303202DE9F04F83B000AF0446006877
:104A18003D6B894616469B46EA4601F0EEFA0028A9
:104A280060D019F0FD0F00F0A080B9F1060F00F07A
:104A38009C80637F012B55D116B9668B002E56D00A
:104A4800A9F10C03082B5AD97A6BBBF1000F14BFDC
:104A5800A8464FF00008002ABA6B08F1050314BFF6
:104A680090464FF00008984408F1070323F0070325
:104A7800AA18ADEB030DC2F3072376BA43EA022363
:104A8800C7F804D08DF80090ADF80160ADF8033098
:104A9800BBF1000F52D0002D50D02A4659460DF1D7
:104AA800050002F027FD681D7B6B002B48D100250F
:104AB800454551D2C5EB08027B682068B2F5806F86
:104AC80028BF4FF48062591901F081FA0646002088
:104AD80000F0ECFA002E3DD1206801F062FC667708
:104AE80000F0ECFA0C37D546BD46BDE8F08F238BB5
:104AF80001339BB203B901232383268BA0E7E36824
:104B08002269934238BF134603F1420800F0D0FAF5
:104B1800C0EB080000280ADB00212046FFF74CFE06
:104B280000F0C6FAC0EB08000028F5DA8CE7217F10
:104B3800002989D12046FFF73FFE85E70520B3E726
:104B4800BB6B002BB3D01A467B68796B184402F014
:104B5800D1FCACE73544ABE703D02046FFF7E2FBD6
:104B6800C0E700F0A5FA2061BCE7002E7FF46CAF27
:104B780063E700001FB500224923009302920192C7
:104B8800034B1121FFF73EFF05B05DF804FB00BFA2
:104B9800FC760D00F0B5ADF22C4D0AAB00240322D3
:104BA80006460D46079307A84FF4806316498DED16
:104BB800050A09930894FFF7C8FA294607A8FFF7DA
:104BC800D5FA9DED050A089B0999079D10EE100A74
:104BD800CF1A1D4402F02CF90C4ACDE900013946E0
:104BE800284600F0BFFC089B029401301844089046
:104BF800013800900194079B224614213046FFF7A4
:104C080001FF0DF22C4DF0BD80770D0083770D006C
:104C18002DE9F843B44B1B68012B0AD1B34C01F0C2
:104C28002FF8B34900F055FDD4ED006ADFEDB17AF5
:104C38000DE0B14B1B68012B24D1AC4C01F020F8DE
:104C4800AE4900F046FDD4ED006AF7EE007AB2EE08
:104C5800047AE6EE877AC4ED007A01F011F8054689
:104C6800206802F0E5F841EC100B0221284600F01C
:104C78003DFE94ED000AA2481321FFF78BFFA14BDC
:104C88001888CCE1A04B1B68012B0AD1974C00F087
:104C9800F7FF9E4900F01DFDD4ED006AF0EE007AA2
:104CA800D5E79B4B1B68012B0AD1904C00F0E8FF1D
:104CB800984900F00EFDD4ED006AF0EE087AC6E7D8
:104CC800954B1B68012B0AD1884C00F0D9FF9349FA
:104CD80000F0FFFCD4ED006AF1EE007AB7E7904BE4
:104CE8001B68012B0AD1814C00F0CAFF8D4900F0E6
:104CF800F0FCD4ED006AF1EE047AA8E78A4B1B6851
:104D0800012B0AD1794C00F0BBFF884900F0E1FC87
:104D1800D4ED006AF1EE087A99E7854B1B68012B00
:104D28000AD1724C00F0ACFF824900F0D2FCD4EDFD
:104D3800006AF1EE0C7A8AE77F4B1B68012B0AD1D7
:104D48006A4C00F09DFF7D4900F0C3FCD4ED006A79
:104D5800F2EE007A7BE77A4B1B68012B0AD1634C91
:104D680000F08EFF774900F0B4FCD4ED006AF2EE53
:104D7800027A6CE7744B1B68012B1ED15B4C734D98
:104D880000F07EFF724900F0A4FC23682B6000F05D
:104D980077FF0646286802F04BF841EC100B022119
:104DA800304600F0A3FD9FED530A554884ED000AF4
:104DB8001321FFF7EFFE002245E0664B1C68012C2B
:104DC8001FD14A4D614E00F05BFF634900F081FC42
:104DD8002B68336000F054FF0746306802F028F86B
:104DE80041EC100B0221384600F080FD9FED410A8E
:104DF800434885ED000A1321FFF7CCFE574B1C7082
:104E08003DE7574B1B68012B20D1384C4F4D00F024
:104E180037FF544900F05DFC23682B6000F030FF39
:104E28000646286802F004F841EC100B02213046CF
:104E380000F05CFD9FED2F0A314884ED000A132134
:104E4800FFF7A8FE0222454B1A7018E7464B1B686D
:104E5800012B1ED1254C3D4D00F012FF434900F0B7
:104E680038FC23682B6000F00BFF0646286801F029
:104E7800DFFF41EC100B0221304600F037FD9FEDBB
:104E88001D0A1F4884ED000A1321FFF783FE032241
:104E9800D9E7374B1B68012B40F0C5802F4D134CC9
:104EA800DFF86080294E00F0EBFE324900F011FC7B
:104EB8002F785FB900F0E4FE2F4900F00AFCD6ED28
:104EC800007A94ED000A37EE800A8CE0012F57D162
:104ED80000F0D6FE294900F0FCFBD6ED007A94EDEF
:104EE800000A37EEC00A7EE094E3032024E303209F
:104EF80089770D000000000098E30320097D0D006C
:104F080038E30320A8E203209CE303208B770D00FD
:104F1800A0E303207E770D00A4E303208D770D0026
:104F2800A8E303208F770D00ACE3032091770D00F1
:104F3800B0E3032093770D00B4E3032095770D00C9
:104F4800B8E3032097770D001CE3032020E3032038
:104F580099770D0034E30320A6770D00C8E30320FA
:104F6800C4E30320B8770D002CE30320CA770D00B3
:104F7800BCE30320DA770D00EA770D00FF770D0018
:104F8800022F23D100F07CFE284900F0A2FB00F09C
:104F980077FE8146306801F04BFF41EC100B394633
:104FA800484600F0A3FC00F06BFE8146206801F043
:104FB8003FFF41EC100B3946484600F097FCD6ED10
:104FC800007A94ED000A27EE800A0CE0032F13D133
:104FD80000F056FE164900F07CFB96ED007AD4ED01
:104FE800007A87EE270A1321124884ED000AFFF79A
:104FF800D1FD04232B7010E000F042FE0E4900F0B2
:1050080068FB9FED0E0A0B4886ED000A0423132166
:1050180084ED000A2B70FFF7BDFDB8F80000BDE86D
:10502800F84300F0ABBCBDE8F88300BF17780D006B
:1050380032780D0038E3032047780D0000000000A7
:1050480008B500210348FFF7B7FBBDE80840FFF7A4
:10505800DFBD00BF38E3032038B50F4D00F056F828
:10506800284601F051FA05F11C00002400F04AFD21
:105078000A4A0B496C6328462C8701F025FC094B2A
:105088001D605C609C60DC601C615C611C835C83EF
:105098001C775C7738BD00BF58E3032018E3032072
:1050A80001410D0038E3032000F030B800F066BC81
:1050B80000F094B800F02AB87047704770470000B5
:1050C8007F289ABF024B53F820000020704700BF8A
:1050D800687A0D007F289ABF024B53F82000002001
:1050E800704700BF68780D0000F010B808B5024B93
:1050F8001B689B68019308BD6802030008B5024B52
:105108001B68DB68019308BD6802030008B5024B01
:105118001B681B68019308BD2C02030008B5024BED
:105128001B685B68019308BD2C02030008B5024B9D
:105138001B689B68019308BD2C02030008B5024B4D
:105148001B68DB68019308BD2C02030008B5024BFD
:105158001B681B69019308BD2C02030008B5024BAC
:105168001B685B69019308BD2C02030008B5024B5C
:105178001B689B6A019308BD2C02030008B5024B0B
:105188001B681B6B019308BD2C02030008B5024B7A
:105198001B689B6F019308BD2C02030008B5024BE6
:1051A8001B68DB69019308BD3002030008B5024B98
:1051B8001B681B6A019308BD3002030008B5024B47
:1051C8001B685B69019308BD6C02030008B5024BBC
:1051D8001B685B68019308BD1802030008B5024B01
:1051E8001B685B69019308BD1802030008B5024BF0
:1051F8001B689B68019308BD4802030008B5024B71
:105208001B681B69019308BD4802030008B5024BDF
:105218001B685B69019308BD4802030008B5024B8F
:105228001B681B6B019308BD4802030008B5024BBD
:105238001B685B6C019308BD4802030008B5024B6C
:105248001B685B69019308BD6402030008B5024B43
:105258001B681B6A019308BD6402030008B5024B72
:105268001B689B6A019308BD6402030008B5024BE2
:105278001B681B68019308BD3C02030008B5024B7C
:105288001B68DB68019308BD3C02030008B5024BAC
:105298001B681B69019308BD3C02030008B5024B5B
:1052A8001B685B69019308BD3C02030008B5024B0B
:1052B8001B689B69019308BD3C02030008B5024BBB
:1052C8001B68DB69019308BD3C02030008B5024B6B
:1052D8001B681B6A019308BD3C02030008B5024B1A
:1052E8001B689B6A019308BD3C02030008B5024B8A
:1052F8001B681B6A019308BD2802030008B5024B0E
:105308001B685B6A019308BD2802030008B5024BBD
:105318001B689B6A019308BD2802030008B5024B6D
:105328001B68DB6A019308BD2802030008B5024B1D
:105338001B681B6B019308BD2802030008B5024BCC
:105348001B685B6B019308BD2802030008B5024B7C
:105358001B681B6C019308BD2802030008B5024BAB
:105368001B689B69019308BD3802030008B5024B0E
:105378001B68DB69019308BD3802030008B5024BBE
:105388001B681B6A019308BD3802030008B5024B6D
:105398001B689B6A019308BD3802030008B5024BDD
:1053A8001B681B6B019308BD3802030008B5024B4C
:1053B8001B689B6B019308BD3802030008B5024BBC
:1053C8001B681B68019308BD4C02030008B5024B1B
:1053D8001B685B68019308BD4C02030008B5024BCB
:1053E8001B681B69019308BD4C02030008B5024BFA
:1053F8001B685B69019308BD4C02030008B5024BAA
:105408001B689B69019308BD4C02030008B5024B59
:105418001B68DB69019308BD4C02030008B5024B09
:105428001B681B6A019308BD4C02030008B5024BB8
:105438001B681B6D019308BD6002030008B5024B91
:105448001B685B68019308BD2002030008B5024B86
:105458001B685B69019308BD2002030008B5034B74
:105468001B68D3F88830019308BD000020020300B0
:1054780008B5034B1B68D3F89430019308BD0000AE
:105488002002030008B5024B1B685B68019308BD46
:105498004002030008B5024B1B689B68019308BDD6
:1054A8004002030008B5024B1B68DB68019308BD86
:1054B8004002030008B5024B1B681B69019308BD35
:1054C8004002030008B5024B1B685B69019308BDE5
:1054D8004002030008B5024B1B689B69019308BD95
:1054E8004002030008B5024B1B68DB69019308BD45
:1054F8004002030008B5024B1B681B6A019308BDF4
:105508004002030008B5024B1B681B6B019308BDE2
:105518004002030008B5024B1B685B6B019308BD92
:105528004002030008B5024B1B689B68019308BD45
:105538004402030008B5024B1B68DB6B019308BDEE
:105548004402030008B5024B1B681B68019308BDA1
:105558001C02030008B5024B1B685B68019308BD79
:105568001C02030008B5024B1B68DB69019308BDE8
:105578001C02030008B5024B1B68DB6B019308BDD6
:105588001C020300002211464068FFF7B3BF002247
:1055980011464068FFF7BEBF00224068FFF7B2BF60
:1055A800002281F001014068FFF79CBF00231A46E2
:1055B80019464068FFF78EBF00231A46194640680F
:1055C800FFF780BF002211464068FFF773BF002233
:1055D80011464068FFF75EBF002202214068FFF7CE
:1055E80061BF00231A464068FFF74CBF024B0322F5
:1055F8005A60024A1A607047CCE30320707C0D00A1
:10560800704710B51021044601F063F9204610BD1B
:1056180070B5084B0360044600250E4640F80C5F41
:10562800FFF7FCFD30462671FFF7B8FDA560204660
:1056380070BD00BFA47C0D000079FFF7B7BD000066
:10564800044B00204FF6FF72187058809A80FFF7BD
:10565800F5BE00BFD4E30320024800230360FFF730
:10566800E5BD00BFDCE30320F8B506460D468F18FC
:105678000024BD420CD0336815F8011B9B683046E6
:105688009847002801DB0444F3E7002C08BF0446D0
:105698002046F8BD70B505460C46084649B101F0EC
:1056A8006FFF2B68024621462846DB68BDE870403C
:1056B800184770BD03689B68184738B50D21054623
:1056C800FFF7F8FF0A2104462846FFF7F3FF2044B6
:1056D80038BD38B50546FFF7DDFF04462846FFF715
:1056E800ECFF204438BD30B58BB00B4600218DF857
:1056F8002410012A98BF0A220DF12304B3FBF2F506
:1057080005FB123303F0FF03092B94BF3033373303
:10571800DBB2214604F801392B46002DEED1FFF704
:10572800B9FF0BB030BD10B42AB903685DF8044B5B
:105738009B68C9B21847D2B25DF8044BFFF7D3BFD4
:10574800FFF7F1BF2DE9F04107460E4615462AB985
:105758000368C9B29B68BDE8F04118470A2A02D11C
:10576800002901DA04E0D2B2BDE8F041FFF7BBBF7F
:105778002D21FFF79FFF2A46044671423846FFF75E
:10578800B2FF2044BDE8F0812DE9F04757EC106BDB
:1057980082460D4610EE102A3B4610EE100A394696
:1057A80001F034FE08B1484912E027F000494FF0F3
:1057B800FF32464B3046494601F028FE68B94FF0A3
:1057C800FF32424B3046494601F002FE28B94049B3
:1057D8005046FFF75FFFBDE8F0874FF060423D4B52
:1057E8003046394601F008FE08B13B49F0E74FF072
:1057F80060423A4B3046394601F0E0FD0028F4D1CA
:10580800002200233046394601F0D8FD40B12D2151
:105818005046FFF74FFF07F1004304461F4600E0DC
:1058280004462F494FF0000800205FFA88F39D4294
:1058380006D900222B4B01F079FC08F10108F4E7A6
:1058480032463B4601F096F90F46064601F01CFE2B
:105858000A22014680465046FFF745FF04447DB3BF
:10586800404601F0C3FA02460B463046394601F07D
:105878007FF906460F4650461B49FFF70BFF0444C5
:10588800184B00223046394601F026FB0F460646E3
:1058980001F0D2FD0A22014680465046FFF752FF2A
:1058A8000444404601F0B2FA02460B4630463946F7
:1058B80001F05EF9013D15F0FF0506460F46DFD100
:1058C8002046BDE8F08700BFAC7C0D00FFFFEF7FEE
:1058D800B67C0D00FFFFEF41B07C0D00FFFFEFC16C
:1058E8000000E03F00002440B47C0D0038B5C9B288
:1058F8000546FFF749FF04462846FFF7DEFE204429
:1059080038BD10B50446FFF769FCE06023682046FF
:105918005B699847002808DAFFF760FCE368C01A5B
:10592800A3689842F2D34FF0FF3010BD2DE9F04143
:1059380080460D468F180C46BC42A4EB050607D0DE
:105948004046FFF7DEFF002802DB04F8010BF3E70F
:105958003046BDE8F0810000014B024A1A607047EA
:10596800E0E303206A7D0D00024B1A68024B1A60BF
:10597800704700BFACE20320E4E303200021FFF7F7
:1059880065BD10B58368044613B1032201469847E4
:10599800204610BD10B50446FFF7F3FF204610BDA2
:1059A8000348044A04490023836000F08DBF00BF08
:1059B800E8E3032018E303209D590D0008B50C4BBC
:1059C80033B100F05DF903681B699847002809DCCA
:1059D800084B63B100F0D6F903681B6998470028A3
:1059E80003DC08BDAFF30080F2E7AFF3008008BD29
:1059F800000000000000000008B5FFF7DFFFFFF718
:105A0800EDFB014B186008BD34E7032007B5002300
:105A180000931A466FF07701FFF72AFD03B05DF88F
:105A280004FB000007B543880A2B08D0502B09D186
:105A3800094B1B683BB103B05DF804EB1847FFF74F
:105A4800E5FF06E0002300931A466FF07701FFF7A1
:105A58000FFD03B05DF804FBF8E3032010B5FFF772
:105A6800B5FB044601F05AFD074B13B12046AFF3CE
:105A7800008000210448FFF75DFD00210348BDE8D0
:105A88001040FFF7EBBC00BF000000002D5A0D00CE
:105A9800704710B51821044600F01BFF204610BDC2
:105AA800F0B5037D062B8DB00E4600F104074FF0CC
:105AB800000402D000F1080518E00CAD394605F8DD
:105AC800304D2F232A460A20FFF7B8FB284601F05D
:105AD80057FD33680246DB682946304698470FE091
:105AE80024B12E213046FFF7E5FD044415F8011DC9
:105AF8000A223046FFF724FEBD420444F0D1204676
:105B08000DB0F0BD10B5054B0446112240F8043B1A
:105B1800002101F0FAFC204610BD00BFC47D0D0035
:105B28000346074A10B543F8042B01F1100251F857
:105B3800044B43F8044B9142F9D10A781A7010BD0E
:105B4800C47D0D00037D042B01D1406808E0062BBD
:105B58000AD1436853B1836843B1C36833B100695C
:105B6800003018BF01207047002070471846704762
:105B780010B59DF8084044EA032343EA024242EA8A
:105B8800016104234160037510BD000037B5044D61
:105B980005609DF818500095FFF7EAFF03B030BD87
:105BA800C47D0D0037B50D788B784A78C978009197
:105BB8002946FFF7DDFF03B030BD417470477047D9
:105BC80008B50021007CFFF719FC30EA200028BF47
:105BD8004FF0FF3008BD08B50121007CFFF70EFC2F
:105BE80030EA200028BF4FF0FF3008BD08B5007C20
:105BF800FFF7FCFB20EAE07008BD08B5007CFFF762
:105C0800EDFB20EAE07008BD007CFFF707BC10B58B
:105C18001421044600F05DFE204610BD38B5044648
:105C2800007C0D46FFF7E2FB002801DC607C28B110
:105C38002946207CFFF7EAFB20EAE07038BD000027
:105C480010B50446002363604FF47A73A360054BD4
:105C5800236001230846217463741146FFF7AEFBE5
:105C6800204610BDD87D0D000022007CFFF7AEBB9A
:105C780010B514220446002101F047FC204610BD4F
:105C880030B50E4D87B001A8FFF7F2FF296811F073
:105C9800010410D12846FEF700FA60B101AA214696
:105CA8000748FFF7CDFF2846FEF7FCF9054A0649E5
:105CB800034800F009FE024807B030BDFCE30320AA
:105CC80000E4032018E30320C75B0D00704741740C
:105CD800704708B5007CFFF701FB20EAE07008BDBB
:105CE80008B5007CFFF7D2FA20EAE07008BD08B5D5
:105CF800007CFFF7DBFA30EA200028BF4FF0FF30C6
:105D080008BD08B5007CFFF7C9FA30EA200028BFB3
:105D18004FF0FF3008BD007CFFF7D0BA10B5142152
:105D2800044600F0D6FD204610BD70B5457C0446FB
:105D38000E4625B9007CFFF7D1FA002805DD31466B
:105D4800207CBDE87040FFF799BA284670BD000076
:105D580010B5044608461146002262604FF47A7274
:105D6800A260054A22600122207462741A46FFF775
:105D78007DFA204610BD00BF087E0D00007CFFF7AD
:105D8800A5BA000038B50C4D296811F0010411D1ED
:105D98002846FEF782F968B1084A094B09482146A6
:105DA800FFF7D6FF2846FEF77DF9074A0749054859
:105DB80000F08AFD034838BDACE40320B0E40320BA
:105DC80028E4032014E4032018E30320D55C0D0025
:105DD8007047F8B5064615460C468F18BC4206D0E3
:105DE800336814F8011B9B6830469847F6E7284645
:105DF800F8BD0022007CFFF779BA0021007CFFF78C
:105E08007DBA0021007CFFF781BA0021007CFFF7F2
:105E180085BA0021007CFFF789BA10B51421044621
:105E280000F057FD204610BD10B504464FF47A73B4
:105E38000846A3600021044B207461602360FFF7CB
:105E480085FA204610BD00BF387E0D000021007C79
:105E5800FFF774BA002211464068FFF74BBB0022D7
:105E680011464068FFF756BB00224068FFF74ABB5F
:105E7800002281F001014068FFF734BB00231A4675
:105E880019464068FFF726BB00231A4619464068A2
:105E9800FFF718BB002211464068FFF70BBB002232
:105EA80011464068FFF7F6BA002202214068FFF762
:105EB800F9BA00231A464068FFF7E4BA38B5054630
:105EC80088B104684CB1A3681BB10322214620465F
:105ED80098471021204600F0FCFC28461421BDE814
:105EE800384000F0F6BC38BD10B103685B6818474D
:105EF800704710B503680446BBB15868FFF776F9D8
:105F080078B923685A7C12B95868FFF777F923687B
:105F18005868FFF77BF920680023236028B1FFF752
:105F2800CDFF206808B1FFF7C9FF204610BD00006B
:105F380038B50C4B03600446D0F8CC0108B1FEF725
:105F4800AAF8D4F8C45135B12846FFF7D2FF042186
:105F5800284600F0BEFCA06808B1FFF7C5FF204640
:105F680038BD00BF607E0D0038B50D4C0D4B236069
:105F78000025022304F5E4706360A560C4F8C451E9
:105F8800C4F8C851FFF752F9074BC4F8CC51236045
:105F98002046064A0649BDE8384000F095BC00BFD7
:105FA80034E50320487F0D00607E0D0018E30320D0
:105FB800395F0D0037B502AC036804F8011DDD6BCD
:105FC80001224FF0FF332146A84703B030BD10B47B
:105FD8000368DC6B4FF0FF33A4465DF8044B604761
:105FE80037B502AC036804F8011DDD6B2146134682
:105FF8000122A84703B030BD704738B543691A6815
:10600800002A044605DAB3F88620B3F884309A42A9
:1060180001D001250BE003681B699847002814BFCD
:106028000125002503D123682046DB6A98472846C6
:1060380038BD43691868C043C00F704770470020D7
:10604800704710B51421044600F043FC204610BDEB
:10605800FEF71FB82DE9F0439846036893B0DB6A52
:106068000C4606461746984712AB002543F8485D8C
:106078002A4629462046FFF741F800283ADB009BCC
:10608800002B39D05B69002B36D006A8FFF73AFD04
:10609800009B5C696378022B01D1211D13E00A2B58
:1060A80014D11122294601A801F02FFAA36833BBA5
:1060B800E36823BB4FF6FF702569FFF7C7F88542F1
:1060C8001DD104F1140106A8FFF76CFD06A8FFF71F
:1060D80039FD88B1336807ADD3F82090184B0C937D
:1060E8000FCD0DAC0FC42B6823703A4643460CA95C
:1060F8003046C84704461CE04FF0FF3419E004F16D
:10610800080301AD1834186859682A4603C20833D1
:10611800A3421546F7D1062301A90CA80DAD8DF8A9
:106128001430FFF7FDFC0FCD07AC0FC42B682370AC
:10613800CCE70098FEF7DAFF204613B0BDE8F083FD
:10614800C47D0D007FB5164600224260029203927C
:106158005A1C04460D4608D04FF47A72B3FBF2F18C
:10616800029102FB11314A430392606908230093AC
:1061780041F205026B4440F6FF710068FFF7EEF844
:10618800002808DB60690023324629460068FFF7CB
:1061980005F9002804DAFFF7EDF9036863600020C9
:1061A80004B070BD10B5036804469B689847A3689F
:1061B800013BA3602BB923682046DB68BDE810408B
:1061C800184710BD70B504464D69054B44F8043BAB
:1061D8008C3506460FCD0FC42B682370304670BD32
:1061E800C47D0D0010B54369B3F88620B3F8843038
:1061F8009A42044605D06269B2F88430134418798B
:1062080010BD03681B6998470028F4D14FF0FF3090
:1062180010BD10B54369B3F88620B3F884309A42AC
:10622800044608D06269B2F88430591C1344A2F8B5
:106238008410187910BD03681B6998470028F1D1AC
:106248004FF0FF3010BDF8B543691746B3F8862004
:10625800B3F884309A4205460E4606D103681B6996
:10626800984710B94FF0FF3414E06969B1F88430E9
:10627800B1F88640E41ABC4228BF3C46194422467D
:106288000431304601F036F96A69B2F884302344A3
:10629800A2F884302046F8BD42690023A2F8843071
:1062A8004269A2F8863070472DE9F04198460368A4
:1062B8000D468AB0DB6A0646174698472B7D7469F7
:1062C800042B0CBF02200A2006220121FFF76EF8DA
:1062D800206073691C68002C5BDB3046FFF7DCFF2D
:1062E800B8F1000F17D0002303A95FFA88F00393D1
:1062F800ADF81030FEF762FF002849DB706906230D
:10630800009341F20B0203AB40F6FF710068FFF700
:1063180025F800283CDB1C242246002103A801F0B4
:10632800F4F82B7D8DF80C40042B0CD10223384651
:106338008DF80D30FEF792FFADF80E006868FEF795
:1063480085FF049013E00A2338468DF80D30FEF7D8
:1063580085FF05ACADF80E002B1D05F11407186874
:106368005968224603C20833BB421446F7D1736901
:106378001C2203A91868FFF701F8002808DB2C1D68
:106388000FCC76698C360FC623683370012404E07D
:10639800044633683046DB6A984720460AB0BDE8B1
:1063A800F08110B5436904461868002801DBFEF740
:1063B800DDFF63694FF0FF321A6060691122002126
:1063C8008C3001F0A2F82046BDE81040FFF764BF0A
:1063D80030B54269B2F886308BB004461BB1B2F8CA
:1063E80084209A4240D06369186800283FDBB3F8DC
:1063F80086507F2D3BD8191DC5F1800208232944FA
:10640800FEF7C4FF00280CDD6369B3F886200AB9DB
:10641800A3F884206269B2F886301844A2F886008E
:1064280025E0FFF7A7F803680B2B20D0FFF7A2F8A9
:1064380003680B2B1BD02023002502930395FFF73D
:1064480099F8036801930E4B009302AA2B460D4955
:106458003220FEF7EBFF63691868FEF787FF636970
:106468004FF0FF321A6002E0FFF716FFBBE76269E0
:10647800B2F88630B2F88400181A0BB030BD00BFED
:10648800FB7E0D00F47E0D0010B50023044601606C
:10649800A0F88430A0F886308830FFF733FB204618
:1064A80010BD00004FF47A7270B500238260144A60
:1064B80043600260436183610446A0200E46FDF7F5
:1064C800E6FD054610B13146FFF7DEFF1420FDF763
:1064D800DEFD034628B1012242608260094A02605B
:1064E8000561A0696561A36128B14368013B436008
:1064F8000BB9FFF757FE2046FFF7CEFE204670BDCA
:10650800B07E0D00947E0D0010B54FF0FF310446AB
:10651800FFF7C8FF204610BD10B5044600680028E4
:1065280001DBFEF723FF204610BD10B504692046A5
:10653800FFF7F2FF24B12046BDE81040FDF7A9BDE2
:1065480010BD002211464068FEF7B4BF0022114674
:106558004068FEF7CFBF002211464068FEF7DABF59
:1065680000224068FEF7CEBF002281F0010140689A
:10657800FEF7B8BF00231A4619464068FEF7AABFBF
:1065880000231A4619464068FEF79CBF00221146B0
:106598004068FEF77FBF002202214068FEF782BFF5
:1065A80000231A464068FEF76DBF0000024B042224
:1065B8005A60024A1A60704704E70320147F0D00EE
:1065C80000231A464068FEF75DBF0022022140689A
:1065D800FEF768BF002211464068FEF75BBF002245
:1065E80011464068FEF766BF00231A461946406800
:1065F800FEF768BF00231A4619464068FEF76ABFCF
:10660800002281F001014068FEF76CBF002240685B
:10661800FEF778BF002211464068FEF77BBF0022D4
:1066280011464068FEF766BF2DE9F043002495B097
:1066380016460D460746FFF765FA214620220CA8A4
:10664800009400F062FF40230C9321466B460CAA8D
:106658003046FEF753FD0446002844D10246012186
:106668006868FEF727FF0221804622466868FEF721
:1066780021FF009E81462146002E34D0002932D1C8
:106688007368022B02D00A2B09D02AE0B8F1000F58
:1066980027D0716938460431FFF784FA20E0B9F150
:1066A800000F1ED07469112201A800F02EFF0623E6
:1066B8008DF8143001AD04F10803183418685968CE
:1066C8002A4603C20833A3421546F7D101A906A8F2
:1066D80007ADFFF725FA0FCD3C1D0FC42B682370BB
:1066E8000121F669C8E70098FEF700FD384615B0A5
:1066F800BDE8F083024B034A1A6000225A607047D3
:106708000CE70320487F0D0010B504460F48FEF73C
:1067180093FF28B1A4F10B03022B01D8002010BD70
:1067280000F0B2F8FFF792FB08B1012CF6D9FFF799
:1067380029FBFFF723FB18B1A4F10903012BEDD9BD
:10674800232C8CBF0020012010BD00BF14E70320BC
:10675800232838B504460D460AD8FF2908D0FFF784
:10676800D3FF28B129462046BDE83840FEF7DEBCF5
:1067780038BD38B504460D46FEF7E0FCFF2810D0BA
:10678800062804D84D2323FA00F0C30709D420466D
:10679800FFF7BAFF28B129462046BDE83840FEF782
:1067A800D5BC38BD10B50446FEF7C8FC0438C0B2E5
:1067B800012808D92046FFF7A7FF20B12046BDE8E9
:1067C8001040FEF7CBBC002010BD0D2810B50446C4
:1067D8009CBF0E34A4B22046FFF796FF50B10321A8
:1067E8002046FEF79BFC032804D12046BDE8104054
:1067F800FEF7C4BC002010BD38B504460D46FFF7AF
:1068080083FFF0B104212046FEF788FC042805D157
:10681800A9B22046BDE83840FEF7A8BC02212046B0
:10682800FEF77CFC02280CD12046FEF787FC0128E5
:1068380001D0042805D129462046BDE83840FEF796
:10684800A5BC38BD70B50C4C0C4E0D4D0021204632
:10685800FEF7DEFE20460B4C3246294600F034F89F
:1068680001212046FEF7D4FE324629462046BDE8DF
:10687800704000F029B800BF14E7032018E3032094
:1068880009560D0024E7032038B50B4D296811F08F
:1068980001040FD12846FDF700FC58B121460748EE
:1068A800FFF7C2FA2846FDF7FDFB054A05490348EC
:1068B80000F00AF8014838BD38E703203CE7032018
:1068C80018E30320D95D0D000B460146184600F079
:1068D80003BEFDF7DEBB0000184B1A68D1075CBF8A
:1068E80001221A60164B1A68D2075CBF01221A608F
:1068F800144B1A68D0075CBF01221A60124B1A6841
:10690800D1075CBF01221A60104B1A68D2075CBF1E
:1069180001221A600E4B1A68D0075CBF01221A6068
:106928000C4B1A68D1075CBF01221A600A4B1A681F
:10693800D2075CBF01221A60704700BF6CE70320D2
:1069480068E7032064E7032060E703205CE703208F
:1069580058E7032054E7032050E70320244B1A6824
:10696800D0075CBF01221A60224B1A68D1075CBFAE
:1069780001221A60204B1A68D2075CBF01221A60F4
:106988001E4B1A68D0075CBF01221A601C4B1A689C
:10699800D1075CBF01221A601A4B1A68D2075CBF84
:1069A80001221A60184B1A68D0075CBF01221A60CE
:1069B800164B1A68D1075CBF01221A60144B1A687B
:1069C800D2075CBF01221A60124B1A68D0075CBF5D
:1069D80001221A60104B1A68D1075CBF01221A60A5
:1069E8000E4B1A68D2075CBF01221A60704700BFBD
:1069F8009CE7032098E7032094E7032090E703200F
:106A08008CE7032088E7032084E7032080E703203E
:106A18007CE7032078E7032074E7032070E703206E
:106A2800244B1A68D0075CBF01221A60224B1A68EF
:106A3800D1075CBF01221A60204B1A68D2075CBFDD
:106A480001221A601E4B1A68D0075CBF01221A6027
:106A58001C4B1A68D1075CBF01221A601A4B1A68CE
:106A6800D2075CBF01221A60184B1A68D0075CBFB6
:106A780001221A60164B1A68D1075CBF01221A60FE
:106A8800144B1A68D2075CBF01221A60124B1A68AD
:106A9800D0075CBF01221A60104B1A68D1075CBF8F
:106AA80001221A600E4B1A68D2075CBF01221A60D5
:106AB800704700BFCCE70320C8E70320C4E70320E2
:106AC800C0E70320BCE70320B8E70320B4E70320AE
:106AD800B0E70320ACE70320A8E70320A4E70320DE
:106AE800A0E70320184B1A68D1075CBF01221A607F
:106AF800164B1A68D2075CBF01221A60144B1A6839
:106B0800D0075CBF01221A60124B1A68D1075CBF1C
:106B180001221A60104B1A68D2075CBF01221A6062
:106B28000E4B1A68D0075CBF01221A600C4B1A681A
:106B3800D1075CBF01221A600A4B1A68D2075CBFF2
:106B480001221A60704700BFECE70320E8E7032042
:106B5800E4E70320E0E70320DCE70320D8E703208D
:106B6800D4E70320D0E7032081F0004102E000BF12
:106B780083F0004330B54FEA41044FEA430594EAF5
:106B8800050F08BF90EA020F1FBF54EA000C55EA30
:106B9800020C7FEA645C7FEA655C00F0E2804FEA01
:106BA8005454D4EB5555B8BF6D420CDD2C4480EAE3
:106BB800020281EA030382EA000083EA010180EA13
:106BC800020281EA0303362D88BF30BD11F0004F61
:106BD8004FEA01314FF4801C4CEA113102D0404297
:106BE80061EB410113F0004F4FEA03334CEA1333D2
:106BF80002D0524263EB430394EA050F00F0A780EA
:106C0800A4F10104D5F1200E0DDB02FA0EFC22FAE4
:106C180005F2801841F1000103FA0EF2801843FAD8
:106C280005F359410EE0A5F120050EF1200E012AC9
:106C380003FA0EFC28BF4CF0020C43FA05F3C01807
:106C480051EBE37101F0004507D54FF0000EDCF180
:106C5800000C7EEB00006EEB0101B1F5801F1BD329
:106C6800B1F5001F0CD349085FEA30004FEA3C0C2D
:106C780004F101044FEA445212F5800F80F09A8023
:106C8800BCF1004F08BF5FEA500C50F1000041EB27
:106C9800045141EA050130BD5FEA4C0C404141EB2B
:106CA800010111F4801FA4F10104E9D191F0000F52
:106CB80004BF01460020B1FA81F308BF2033A3F1D5
:106CC8000B03B3F120020CDA0C3208DD02F1140CCC
:106CD800C2F10C0201FA0CF021FA02F10CE002F107
:106CE8001402D8BFC2F1200C01FA02F120FA0CFC00
:106CF800DCBF41EA0C019040E41AA2BF01EB045149
:106D0800294330BD6FEA04041F3C1CDA0C340EDC46
:106D180004F11404C4F1200220FA04F001FA02F389
:106D280040EA030021FA04F345EA030130BDC4F147
:106D38000C04C4F1200220FA02F001FA04F340EA3C
:106D48000300294630BD21FA04F0294630BD94F0ED
:106D5800000F83F4801306BF81F480110134013DD4
:106D68004EE77FEA645C18BF7FEA655C29D094EA45
:106D7800050F08BF90EA020F05D054EA000C04BFC3
:106D88001946104630BD91EA030F1EBF00210020AE
:106D980030BD5FEA545C05D14000494128BF41F04D
:106DA800004130BD14F580043CBF01F5801130BDB1
:106DB80001F0004545F0FE4141F470014FF000003C
:106DC80030BD7FEA645C1ABF194610467FEA655CED
:106DD8001CBF0B46024650EA013406BF52EA03358F
:106DE80091EA030F41F4002130BD00BF90F0000F7D
:106DF80004BF0021704730B54FF4806404F13204B9
:106E08004FF000054FF0000150E700BF90F0000F71
:106E180004BF0021704730B54FF4806404F1320498
:106E280010F0004548BF40424FF000013EE700BF68
:106E380042004FEAE2014FEA31014FEA02701FBFF8
:106E480012F07F4393F07F4F81F06051704792F0CA
:106E5800000F14BF93F07F4F704730B54FF4607444
:106E680001F0004521F0004120E700BF50EA01028F
:106E780008BF704730B54FF000050AE050EA01023C
:106E880008BF704730B511F0004502D5404261EBAC
:106E980041014FF4806404F132045FEA915C3FF4ED
:106EA800DCAE4FF003025FEADC0C18BF03325FEA86
:106EB800DC0C18BF033202EBDC02C2F1200300FA3B
:106EC80003FC20FA02F001FA03FE40EA0E0021FA60
:106ED80002F11444C1E600BF70B54FF0FF0C4CF44A
:106EE800E06C1CEA11541DBF1CEA135594EA0C0F00
:106EF80095EA0C0F00F0DEF82C4481EA030621EA3B
:106F08004C5123EA4C5350EA013518BF52EA033575
:106F180041F4801143F4801338D0A0FB02CE4FF027
:106F28000005E1FB02E506F00042E0FB03E54FF057
:106F38000006E1FB03569CF0000F18BF4EF0010E4F
:106F4800A4F1FF04B6F5007F64F5407404D25FEA4B
:106F58004E0E6D4146EB060642EAC62141EA5551FE
:106F68004FEAC52040EA5E504FEACE2EB4F1FD0C40
:106F780088BFBCF5E06F1ED8BEF1004F08BF5FEABE
:106F8800500E50F1000041EB045170BD06F0004670
:106F980046EA010140EA020081EA0301B4EB5C041D
:106FA800C2BFD4EB0C0541EA045170BD41F4801115
:106FB8004FF0000E013C00F3AB8014F1360FDEBF3A
:106FC800002001F0004170BDC4F10004203C35DA16
:106FD8000C341BDC04F11404C4F1200500FA05F399
:106FE80020FA04F001FA05F240EA020001F000423A
:106FF80021F0004110EBD37021FA04F642EB0601B0
:107008005EEA430E08BF20EAD37070BDC4F10C04D9
:10701800C4F1200500FA04F320FA05F001FA04F29D
:1070280040EA020001F0004110EBD37041F1000189
:107038005EEA430E08BF20EAD37070BDC4F1200594
:1070480000FA05F24EEA020E20FA04F301FA05F2FC
:1070580043EA020321FA04F001F0004121FA04F2A4
:1070680020EA020000EBD3705EEA430E08BF20EA74
:10707800D37070BD94F0000F0FD101F000464000AE
:1070880041EB010111F4801F08BF013CF7D041EA30
:10709800060195F0000F18BF704703F00046520034
:1070A80043EB030313F4801F08BF013DF7D043EA05
:1070B8000603704794EA0C0F0CEA135518BF95EABB
:1070C8000C0F0CD050EA410618BF52EA4306D1D142
:1070D80081EA030101F000414FF0000070BD50EA61
:1070E800410606BF1046194652EA430619D094EAEB
:1070F8000C0F02D150EA013613D195EA0C0F05D1D5
:1071080052EA03361CBF104619460AD181EA030128
:1071180001F0004141F0FE4141F470014FF00000E0
:1071280070BD41F0FE4141F4780170BD70B54FF07B
:10713800FF0C4CF4E06C1CEA11541DBF1CEA1355FB
:1071480094EA0C0F95EA0C0F00F0A7F8A4EB0504DD
:1071580081EA030E52EA03354FEA013100F08880D4
:107168004FEA03334FF0805545EA131343EA12639D
:107178004FEA022245EA111545EA10654FEA002652
:107188000EF000419D4208BF964244F1FD0404F50B
:10719800407402D25B084FEA3202B61A65EB030567
:1071A8005B084FEA32024FF480104FF4002CB6EB24
:1071B800020E75EB030E22BFB61A754640EA0C00A4
:1071C8005B084FEA3202B6EB020E75EB030E22BFE4
:1071D800B61A754640EA5C005B084FEA3202B6EB25
:1071E800020E75EB030E22BFB61A754640EA9C00E4
:1071F8005B084FEA3202B6EB020E75EB030E22BFB4
:10720800B61A754640EADC0055EA060E18D04FEA71
:10721800051545EA16754FEA06164FEAC30343EA11
:1072280052734FEAC2025FEA1C1CC0D111F4801FDE
:107238000BD141EA00014FF000004FF0004CB6E7D7
:1072480011F4801F04BF01430020B4F1FD0C88BF76
:10725800BCF5E06F3FF6AFAEB5EB030C04BFB6EB81
:10726800020C5FEA500C50F1000041EB045170BD74
:107278000EF0004E4EEA113114EB5C04C2BFD4EBA1
:107288000C0541EA045170BD41F480114FF0000E25
:10729800013C90E645EA060E8DE60CEA135594EAA1
:1072A8000C0F08BF95EA0C0F3FF43BAF94EA0C0FA4
:1072B8000AD150EA01347FF434AF95EA0C0F7FF419
:1072C80025AF104619462CE795EA0C0F06D152EA6D
:1072D80003353FF4FDAE1046194622E750EA410651
:1072E80018BF52EA43067FF4C5AE50EA41047FF462
:1072F8000DAF52EA43057FF4EBAE12E74FF0FF3CC7
:1073080006E000BF4FF0010C02E000BF4FF0010C97
:107318004DF804CD4FEA410C7FEA6C5C4FEA430C10
:1073280018BF7FEA6C5C1BD001B050EA410C0CBF5F
:1073380052EA430C91EA030F02BF90EA020F0020C1
:10734800704710F1000F91EA030F58BF994208BF28
:1073580090422CBFD8176FEAE37040F001007047E5
:107368004FEA410C7FEA6C5C02D150EA013C07D13C
:107378004FEA430C7FEA6C5CD6D152EA033CD3D087
:107388005DF8040B704700BF8446104662468C4681
:107398001946634600E000BF01B5FFF7B7FF0028B4
:1073A80048BF10F1000F01BD4DF808EDFFF7F4FFDD
:1073B8000CBF012000205DF808FB00BF4DF808ED68
:1073C800FFF7EAFF34BF012000205DF808FB00BF8B
:1073D8004DF808EDFFF7E0FF94BF012000205DF8AD
:1073E80008FB00BF4DF808EDFFF7CEFF94BF012062
:1073F80000205DF808FB00BF4DF808EDFFF7C4FF5B
:1074080034BF012000205DF808FB00BF4FEA410CA3
:107418007FEA6C5C02D150EA013C0AD14FEA430C86
:107428007FEA6C5C02D152EA033C02D14FF00000C3
:1074380070474FF0010070474FEA410212F5001201
:1074480015D211D56FF47873B3EB625212D94FEAA3
:10745800C12343F0004343EA505311F0004F23FA8D
:1074680002F018BF404270474FF00000704750EAE2
:10747800013005D111F0004008BF6FF0004070479F
:107488004FF00000704700BF4A0011D212F50012F9
:1074980011D20DD56FF47873B3EB62520ED44FEA64
:1074A800C12343F0004343EA505323FA02F07047E4
:1074B8004FF00000704750EA013002D14FF0FF3022
:1074C80070474FF0000070470A22002100F0FAB818
:1074D8000A22002100F0F6B810B5054C13462CB16D
:1074E8000A4601460220AFF3008010BD204610BDB9
:1074F8000000000010B5431E0A44914204D011F860
:10750800014B03F8014FF8E710BD024403469342CC
:1075180002D003F8011BFAE77047000038B5124B98
:107528001C68A36B0546D3B91820FEF70BF843F285
:107538000E33A06303804AF6CD33438041F23423EF
:1075480083804EF26D63C3804DF6EC63038105239F
:1075580043810B23838101220023C0E90423A36B09
:1075680000221D615A6138BD14E3032010F8012B75
:1075780011F8013B012A28BF9A42F7D0D01A704768
:10758800034613F8012B002AFBD1181A013870475B
:1075980010B5034642B111F8014B03F8014B013A0B
:1075A800002CF7D11A4400E010BD934202D003F832
:1075B800014BFAE710BD00002DE9F047804640482E
:1075C800D0F800900F463D4615F8014B09EB040032
:1075D800407800F0080000F0FF0608B12F46F2E7F7
:1075E8002D2C03D1BD1C7C78012603E02B2C04BF75
:1075F8007C78BD1C13B1102B0AD15BE0302C57D11D
:10760800287800F0DF0058284DD16C781023023517
:10761800002E14BF4FF0004C6FF0004C0027BCFB4D
:10762800F3FA384603FB1ACC09EB040E9EF801E086
:107638001EF0040F01D0303C0BE01EF0030E1BD0EF
:10764800BEF1010F0CBF4FF0370E4FF0570ECEEBC7
:107658000404A34210DDB7F1FF3F0AD0504506D815
:1076680001D1644503DC03FB0040012701E04FF032
:10767800FF3715F8014BD7E77B1C0CD1002E4FF0D4
:10768800220314BF4FF000406FF00040C8F80030EC
:107698002AB9BDE8F08706B1404272B107B1691E48
:1076A8001160BDE8F0873024002BB1D10823AFE783
:1076B8000A23ADE7302CA3D0AAE7BDE8F08700BFC6
:1076C800B0E2032013460A46014602480068FFF765
:1076D80073BF00BF14E303201D400D0059400D0087
:1076E80085400D0089400D0000000000626C6E6B43
:1076F800696E660076657200302E352E3400682D6E
:107708006265617400313000627566662D696E00CD
:107718003130323400646576005061727469636C8C
:1077280065006275696C64004A756C2020382032E7
:107738003031392031373A32353A323500000025B8
:107748006900256C6900696E006F75740070776D4B
:107758000064770061770037346238393832393756
:107768003961633438643262343963316533326184
:10777800646366373965330076770025322E3366C1
:107788000030003200340035003600370038003948
:10779800004164642053656C6563746564005375C7
:1077A8006274726163742053656C65637465640008
:1077B8004D756C7469706C792053656C656374657C
:1077C80064004469766964652053656C6563746513
:1077D8006400457175616C732053656C65637465ED
:1077E80064004164646974696F6E20696E20507228
:1077F8006F6772657373005375627472616374693D
:107808006F6E20696E2050726F6772657373004DDA
:10781800756C7469706C69636174696F6E20696EE8
:107828002050726F67726573730044697669736973
:107838006F6E20696E2050726F67726573730045B2
:107848007175616C7320726573756C7465642069F9
:107858006E2066756C6C20636C65617200000000B8
:10786800BD410D00D9410D00ED410D0001420D0053
:1078780015420D0029420D003D420D0051420D00F8
:1078880065420D0079420D008D420D00A1420D00A8
:10789800B5420D00C9420D00DD420D00F1420D0058
:1078A80005430D0019430D00C3500D00C3500D00D2
:1078B800C3500D00C3500D00C3500D00C3500D0040
:1078C800C3500D00C3500D00C3500D00C3500D0030
:1078D800C3500D00C3500D00C3500D00C3500D0020
:1078E800C3500D00C3500D00C3500D00C3500D0010
:107C68000000000000000000EB550D00E1550D007C
:107C7800D7550D00CD550D00C1550D00B5550D005A
:107C8800A9550D00A1550D0097550D008D550D00F6
:107C980031660D00000000000000000009560D00CC
:107CA8000B560D006E616E006F7666002E00696ED1
:107CB80066006C6E00666E00636F646500646574D0
:107CC80061696C000D0A00253031307520005D2097
:107CD800002C200028293A2000205B00636F64658F
:107CE800203D200064657461696C73203D2000624A
:107CF8006175640053657269616C005365726961EE
:107D08006C31007479706500706172616D00636D2B
:107D18006400696400686E64007374726D0066695B
:107D28006C74006C766C0061646448616E646C65A8
:107D3800720072656D6F766548616E646C6572007D
:107D4800656E756D48616E646C657273004A534F59
:107D58004E53747265616D4C6F6748616E646C65F3
:107D68007200617070006E6F6E6500747261636599
:107D780000696E666F007761726E006572726F726D
:107D88000070616E696300616C6C005A00252B30CD
:107D980033643A253032750025592D256D2D25641B
:107DA8005425483A254D3A2553257A006173637462
:107DB800696D65000000000000000000A95A0D0070
:107DC800995A0D009B5A0D000000000000000000A9
:107DD800C75B0D00175C0D00255C0D0071560D008A
:107DE800035C0D00C95B0D00DF5B0D00115C0D002D
:107DF800F55B0D00C35B0D000000000000000000F3
:107E0800D55C0D00255D0D00335D0D0071560D002C
:107E1800E95C0D000B5D0D00F75C0D001F5D0D00AA
:107E2800D75C0D00DB5C0D000000000000000000C6
:107E3800D95D0D00235E0D00FB5D0D00DB5D0D00BF
:107E4800035E0D000B5E0D00135E0D001B5E0D0042
:107E58000000000000000000BB5E0D00B15E0D00D8
:107E6800A75E0D009D5E0D00915E0D00855E0D0004
:107E7800795E0D00715E0D00675E0D005D5E0D00A0
:107E880031660D00000000000000000045600D0094
:107E98004B600D0033650D0059600D0047600D0003
:107EA8000000000000000000CD400D000D410D0055
:107EB800BD5F0D00D75F0D00D9630D001B620D007B
:107EC800ED610D0001600D00B1620D005D600D00F7
:107ED8004F620D00AB630D0003600D003B600D00A9
:107EE800E95F0D004D610D00CD610D007769726984
:107EF8006E670072656376206572726F72203D202E
:107F0800256400000000000000000000A9650D00C5
:107F18009F650D0095650D004B650D0089650D0089
:107F28007D650D0071650D0069650D005F650D00CB
:107F380055650D0031660D000000000000000000CE
:107F4800C9650D00D3650D00DD650D00E7650D0001
:107F5800F1650D00FD650D0009660D0015660D0043
:107F68001D660D0027660D0031660D0000202020DB
:107F780020202020202028282828282020202020D1
:107F880020202020202020202020202020881010A1
:107F980010101010101010101010101010040404FD
:107FA80004040404040404101010101010104141BB
:107FB80041414141010101010101010101010101A9
:107FC80001010101010101011010101010104242BD
:107FD8004242424202020202020202020202020279
:107FE8000202020202020202101010102000000019
:107FF8000000000000000000000000000000000079
:108008000000000000000000000000000000000068
:108018000000000000000000000000000000000058
:108028000000000000000000000000000000000048
:108038000000000000000000000000000000000038
:108048000000000000000000000000000000000028
:108058000000000000000000000000000000000018
:108068000000000000000000000000000000000008
:1080780000000000000000000000000000000000F8
:1080880000000000000000000000000000000000E8
:1080980000000000000000000000000000000000D8
:1080A80000000000000000000000000000000000C8
:1080B80000000000000000000000000000000000B8
:1080C80000000000000000000000000000000000A8
:1080D8004300000061500D00B1500D00BD500D006F
:1080E800F1500D00F5550D0049560D0061560D0073
:1080F80061590D0071590D00A9590D00715F0D00EE
:10810800B5650D00FD660D004D680D00E1680D00B8
:1081180065690D00296A0D00ED6A0D000000000078
:0881280000000000000000004F
:1081300090010000B47D0D00747F0D000000000070
:1081400078800D0098800D00B8800D0000000000C0
:10815000000000000000000000000000D8800D00BA
:10816000000000000000000000000000000000000F
:1081700000000000000000000000000000000000FF
:1081800000000000000000000000000000000000EF
:10819000000000000000000000000000B4E2032026
:1081A000FFFFFFFF00000102030405060708090A9C
:1081B0000B0C0D0E0F101112131415161718191A97
:0881C0001B1C1D1E1F202800DE
:0481C800785634129F
:04000003D0004018D1
:00000001FF
